{"abi":[{"type":"constructor","inputs":[{"name":"_g","type":"address","internalType":"address"},{"name":"_s","type":"address","internalType":"address"},{"name":"_r","type":"address","internalType":"address"},{"name":"_d","type":"address","internalType":"address"}],"stateMutability":"nonpayable"},{"type":"function","name":"BURN_ADDRESS","inputs":[],"outputs":[{"name":"","type":"address","internalType":"address"}],"stateMutability":"view"},{"type":"function","name":"GTOKEN","inputs":[],"outputs":[{"name":"","type":"address","internalType":"address"}],"stateMutability":"view"},{"type":"function","name":"GTOKEN_STAKING","inputs":[],"outputs":[{"name":"","type":"address","internalType":"address"}],"stateMutability":"view"},{"type":"function","name":"REGISTRY","inputs":[],"outputs":[{"name":"","type":"address","internalType":"address"}],"stateMutability":"view"},{"type":"function","name":"VERSION","inputs":[],"outputs":[{"name":"","type":"string","internalType":"string"}],"stateMutability":"view"},{"type":"function","name":"VERSION_CODE","inputs":[],"outputs":[{"name":"","type":"uint256","internalType":"uint256"}],"stateMutability":"view"},{"type":"function","name":"approve","inputs":[{"name":"to","type":"address","internalType":"address"},{"name":"tokenId","type":"uint256","internalType":"uint256"}],"outputs":[],"stateMutability":"nonpayable"},{"type":"function","name":"avatarDelegation","inputs":[{"name":"","type":"address","internalType":"address"},{"name":"","type":"uint256","internalType":"uint256"},{"name":"","type":"address","internalType":"address"}],"outputs":[{"name":"","type":"bool","internalType":"bool"}],"stateMutability":"view"},{"type":"function","name":"balanceOf","inputs":[{"name":"owner","type":"address","internalType":"address"}],"outputs":[{"name":"","type":"uint256","internalType":"uint256"}],"stateMutability":"view"},{"type":"function","name":"bindCommunityNFT","inputs":[{"name":"","type":"address","internalType":"address"},{"name":"nc","type":"address","internalType":"address"},{"name":"nid","type":"uint256","internalType":"uint256"}],"outputs":[],"stateMutability":"nonpayable"},{"type":"function","name":"bindNFT","inputs":[{"name":"nc","type":"address","internalType":"address"},{"name":"nid","type":"uint256","internalType":"uint256"}],"outputs":[],"stateMutability":"nonpayable"},{"type":"function","name":"burnSBT","inputs":[],"outputs":[{"name":"net","type":"uint256","internalType":"uint256"}],"stateMutability":"nonpayable"},{"type":"function","name":"communityDefaultAvatar","inputs":[{"name":"","type":"address","internalType":"address"}],"outputs":[{"name":"","type":"string","internalType":"string"}],"stateMutability":"view"},{"type":"function","name":"daoMultisig","inputs":[],"outputs":[{"name":"","type":"address","internalType":"address"}],"stateMutability":"view"},{"type":"function","name":"delegateAvatarUsage","inputs":[{"name":"nc","type":"address","internalType":"address"},{"name":"nid","type":"uint256","internalType":"uint256"},{"name":"del","type":"address","internalType":"address"}],"outputs":[],"stateMutability":"nonpayable"},{"type":"function","name":"getAllNFTBindings","inputs":[{"name":"tid","type":"uint256","internalType":"uint256"}],"outputs":[{"name":"","type":"tuple[]","internalType":"struct IMySBT.NFTBinding[]","components":[{"name":"nftContract","type":"address","internalType":"address"},{"name":"nftTokenId","type":"uint256","internalType":"uint256"},{"name":"bindTime","type":"uint256","internalType":"uint256"},{"name":"isActive","type":"bool","internalType":"bool"}]}],"stateMutability":"view"},{"type":"function","name":"getApproved","inputs":[{"name":"tokenId","type":"uint256","internalType":"uint256"}],"outputs":[{"name":"","type":"address","internalType":"address"}],"stateMutability":"view"},{"type":"function","name":"getAvatarURI","inputs":[{"name":"tid","type":"uint256","internalType":"uint256"}],"outputs":[{"name":"uri","type":"string","internalType":"string"}],"stateMutability":"view"},{"type":"function","name":"getCommunityMembership","inputs":[{"name":"tid","type":"uint256","internalType":"uint256"},{"name":"comm","type":"address","internalType":"address"}],"outputs":[{"name":"mem","type":"tuple","internalType":"struct IMySBT.CommunityMembership","components":[{"name":"community","type":"address","internalType":"address"},{"name":"joinedAt","type":"uint256","internalType":"uint256"},{"name":"lastActiveTime","type":"uint256","internalType":"uint256"},{"name":"isActive","type":"bool","internalType":"bool"},{"name":"metadata","type":"string","internalType":"string"}]}],"stateMutability":"view"},{"type":"function","name":"getCommunityReputation","inputs":[{"name":"u","type":"address","internalType":"address"},{"name":"comm","type":"address","internalType":"address"}],"outputs":[{"name":"","type":"uint256","internalType":"uint256"}],"stateMutability":"view"},{"type":"function","name":"getGlobalReputation","inputs":[{"name":"u","type":"address","internalType":"address"}],"outputs":[{"name":"","type":"uint256","internalType":"uint256"}],"stateMutability":"view"},{"type":"function","name":"getMemberships","inputs":[{"name":"tid","type":"uint256","internalType":"uint256"}],"outputs":[{"name":"","type":"tuple[]","internalType":"struct IMySBT.CommunityMembership[]","components":[{"name":"community","type":"address","internalType":"address"},{"name":"joinedAt","type":"uint256","internalType":"uint256"},{"name":"lastActiveTime","type":"uint256","internalType":"uint256"},{"name":"isActive","type":"bool","internalType":"bool"},{"name":"metadata","type":"string","internalType":"string"}]}],"stateMutability":"view"},{"type":"function","name":"getSBTData","inputs":[{"name":"tid","type":"uint256","internalType":"uint256"}],"outputs":[{"name":"","type":"tuple","internalType":"struct IMySBT.SBTData","components":[{"name":"holder","type":"address","internalType":"address"},{"name":"firstCommunity","type":"address","internalType":"address"},{"name":"mintedAt","type":"uint256","internalType":"uint256"},{"name":"totalCommunities","type":"uint256","internalType":"uint256"}]}],"stateMutability":"view"},{"type":"function","name":"getUserSBT","inputs":[{"name":"u","type":"address","internalType":"address"}],"outputs":[{"name":"","type":"uint256","internalType":"uint256"}],"stateMutability":"view"},{"type":"function","name":"isApprovedForAll","inputs":[{"name":"owner","type":"address","internalType":"address"},{"name":"operator","type":"address","internalType":"address"}],"outputs":[{"name":"","type":"bool","internalType":"bool"}],"stateMutability":"view"},{"type":"function","name":"lastActivityTime","inputs":[{"name":"","type":"uint256","internalType":"uint256"},{"name":"","type":"address","internalType":"address"}],"outputs":[{"name":"","type":"uint256","internalType":"uint256"}],"stateMutability":"view"},{"type":"function","name":"leaveCommunity","inputs":[{"name":"comm","type":"address","internalType":"address"}],"outputs":[],"stateMutability":"nonpayable"},{"type":"function","name":"membershipIndex","inputs":[{"name":"","type":"uint256","internalType":"uint256"},{"name":"","type":"address","internalType":"address"}],"outputs":[{"name":"","type":"uint256","internalType":"uint256"}],"stateMutability":"view"},{"type":"function","name":"minLockAmount","inputs":[],"outputs":[{"name":"","type":"uint256","internalType":"uint256"}],"stateMutability":"view"},{"type":"function","name":"mintFee","inputs":[],"outputs":[{"name":"","type":"uint256","internalType":"uint256"}],"stateMutability":"view"},{"type":"function","name":"mintOrAddMembership","inputs":[{"name":"u","type":"address","internalType":"address"},{"name":"meta","type":"string","internalType":"string"}],"outputs":[{"name":"tid","type":"uint256","internalType":"uint256"},{"name":"isNew","type":"bool","internalType":"bool"}],"stateMutability":"nonpayable"},{"type":"function","name":"mintWithAutoStake","inputs":[{"name":"comm","type":"address","internalType":"address"},{"name":"meta","type":"string","internalType":"string"}],"outputs":[{"name":"tid","type":"uint256","internalType":"uint256"},{"name":"isNew","type":"bool","internalType":"bool"}],"stateMutability":"nonpayable"},{"type":"function","name":"name","inputs":[],"outputs":[{"name":"","type":"string","internalType":"string"}],"stateMutability":"view"},{"type":"function","name":"nextTokenId","inputs":[],"outputs":[{"name":"","type":"uint256","internalType":"uint256"}],"stateMutability":"view"},{"type":"function","name":"ownerOf","inputs":[{"name":"tokenId","type":"uint256","internalType":"uint256"}],"outputs":[{"name":"","type":"address","internalType":"address"}],"stateMutability":"view"},{"type":"function","name":"pause","inputs":[],"outputs":[],"stateMutability":"nonpayable"},{"type":"function","name":"paused","inputs":[],"outputs":[{"name":"","type":"bool","internalType":"bool"}],"stateMutability":"view"},{"type":"function","name":"recordActivity","inputs":[{"name":"u","type":"address","internalType":"address"}],"outputs":[],"stateMutability":"nonpayable"},{"type":"function","name":"reputationCalculator","inputs":[],"outputs":[{"name":"","type":"address","internalType":"address"}],"stateMutability":"view"},{"type":"function","name":"safeMint","inputs":[{"name":"to","type":"address","internalType":"address"},{"name":"comm","type":"address","internalType":"address"},{"name":"meta","type":"string","internalType":"string"}],"outputs":[{"name":"tid","type":"uint256","internalType":"uint256"}],"stateMutability":"nonpayable"},{"type":"function","name":"safeTransferFrom","inputs":[{"name":"from","type":"address","internalType":"address"},{"name":"to","type":"address","internalType":"address"},{"name":"tokenId","type":"uint256","internalType":"uint256"}],"outputs":[],"stateMutability":"nonpayable"},{"type":"function","name":"safeTransferFrom","inputs":[{"name":"from","type":"address","internalType":"address"},{"name":"to","type":"address","internalType":"address"},{"name":"tokenId","type":"uint256","internalType":"uint256"},{"name":"data","type":"bytes","internalType":"bytes"}],"outputs":[],"stateMutability":"nonpayable"},{"type":"function","name":"sbtAvatars","inputs":[{"name":"","type":"uint256","internalType":"uint256"}],"outputs":[{"name":"nftContract","type":"address","internalType":"address"},{"name":"nftTokenId","type":"uint256","internalType":"uint256"},{"name":"isCustom","type":"bool","internalType":"bool"}],"stateMutability":"view"},{"type":"function","name":"sbtData","inputs":[{"name":"","type":"uint256","internalType":"uint256"}],"outputs":[{"name":"holder","type":"address","internalType":"address"},{"name":"firstCommunity","type":"address","internalType":"address"},{"name":"mintedAt","type":"uint256","internalType":"uint256"},{"name":"totalCommunities","type":"uint256","internalType":"uint256"}],"stateMutability":"view"},{"type":"function","name":"setApprovalForAll","inputs":[{"name":"operator","type":"address","internalType":"address"},{"name":"approved","type":"bool","internalType":"bool"}],"outputs":[],"stateMutability":"nonpayable"},{"type":"function","name":"setAvatar","inputs":[{"name":"nc","type":"address","internalType":"address"},{"name":"nid","type":"uint256","internalType":"uint256"}],"outputs":[],"stateMutability":"nonpayable"},{"type":"function","name":"setCommunityDefaultAvatar","inputs":[{"name":"uri","type":"string","internalType":"string"}],"outputs":[],"stateMutability":"nonpayable"},{"type":"function","name":"setDAOMultisig","inputs":[{"name":"d","type":"address","internalType":"address"}],"outputs":[],"stateMutability":"nonpayable"},{"type":"function","name":"setMinLockAmount","inputs":[{"name":"a","type":"uint256","internalType":"uint256"}],"outputs":[],"stateMutability":"nonpayable"},{"type":"function","name":"setMintFee","inputs":[{"name":"f","type":"uint256","internalType":"uint256"}],"outputs":[],"stateMutability":"nonpayable"},{"type":"function","name":"setRegistry","inputs":[{"name":"r","type":"address","internalType":"address"}],"outputs":[],"stateMutability":"nonpayable"},{"type":"function","name":"setReputationCalculator","inputs":[{"name":"c","type":"address","internalType":"address"}],"outputs":[],"stateMutability":"nonpayable"},{"type":"function","name":"supportsInterface","inputs":[{"name":"interfaceId","type":"bytes4","internalType":"bytes4"}],"outputs":[{"name":"","type":"bool","internalType":"bool"}],"stateMutability":"view"},{"type":"function","name":"symbol","inputs":[],"outputs":[{"name":"","type":"string","internalType":"string"}],"stateMutability":"view"},{"type":"function","name":"tokenURI","inputs":[{"name":"tokenId","type":"uint256","internalType":"uint256"}],"outputs":[{"name":"","type":"string","internalType":"string"}],"stateMutability":"view"},{"type":"function","name":"transferFrom","inputs":[{"name":"from","type":"address","internalType":"address"},{"name":"to","type":"address","internalType":"address"},{"name":"tokenId","type":"uint256","internalType":"uint256"}],"outputs":[],"stateMutability":"nonpayable"},{"type":"function","name":"unpause","inputs":[],"outputs":[],"stateMutability":"nonpayable"},{"type":"function","name":"userMint","inputs":[{"name":"comm","type":"address","internalType":"address"},{"name":"meta","type":"string","internalType":"string"}],"outputs":[{"name":"tid","type":"uint256","internalType":"uint256"},{"name":"isNew","type":"bool","internalType":"bool"}],"stateMutability":"nonpayable"},{"type":"function","name":"userToSBT","inputs":[{"name":"","type":"address","internalType":"address"}],"outputs":[{"name":"","type":"uint256","internalType":"uint256"}],"stateMutability":"view"},{"type":"function","name":"verifyCommunityMembership","inputs":[{"name":"u","type":"address","internalType":"address"},{"name":"comm","type":"address","internalType":"address"}],"outputs":[{"name":"","type":"bool","internalType":"bool"}],"stateMutability":"view"},{"type":"function","name":"weeklyActivity","inputs":[{"name":"","type":"uint256","internalType":"uint256"},{"name":"","type":"address","internalType":"address"},{"name":"","type":"uint256","internalType":"uint256"}],"outputs":[{"name":"","type":"bool","internalType":"bool"}],"stateMutability":"view"},{"type":"event","name":"ActivityRecorded","inputs":[{"name":"tokenId","type":"uint256","indexed":true,"internalType":"uint256"},{"name":"community","type":"address","indexed":true,"internalType":"address"},{"name":"week","type":"uint256","indexed":false,"internalType":"uint256"},{"name":"timestamp","type":"uint256","indexed":false,"internalType":"uint256"}],"anonymous":false},{"type":"event","name":"Approval","inputs":[{"name":"owner","type":"address","indexed":true,"internalType":"address"},{"name":"approved","type":"address","indexed":true,"internalType":"address"},{"name":"tokenId","type":"uint256","indexed":true,"internalType":"uint256"}],"anonymous":false},{"type":"event","name":"ApprovalForAll","inputs":[{"name":"owner","type":"address","indexed":true,"internalType":"address"},{"name":"operator","type":"address","indexed":true,"internalType":"address"},{"name":"approved","type":"bool","indexed":false,"internalType":"bool"}],"anonymous":false},{"type":"event","name":"AvatarSet","inputs":[{"name":"tokenId","type":"uint256","indexed":true,"internalType":"uint256"},{"name":"nftContract","type":"address","indexed":false,"internalType":"address"},{"name":"nftTokenId","type":"uint256","indexed":false,"internalType":"uint256"},{"name":"isCustom","type":"bool","indexed":false,"internalType":"bool"},{"name":"timestamp","type":"uint256","indexed":false,"internalType":"uint256"}],"anonymous":false},{"type":"event","name":"ContractPaused","inputs":[{"name":"by","type":"address","indexed":true,"internalType":"address"},{"name":"timestamp","type":"uint256","indexed":false,"internalType":"uint256"}],"anonymous":false},{"type":"event","name":"ContractUnpaused","inputs":[{"name":"by","type":"address","indexed":true,"internalType":"address"},{"name":"timestamp","type":"uint256","indexed":false,"internalType":"uint256"}],"anonymous":false},{"type":"event","name":"DAOMultisigUpdated","inputs":[{"name":"oldDAO","type":"address","indexed":true,"internalType":"address"},{"name":"newDAO","type":"address","indexed":true,"internalType":"address"},{"name":"timestamp","type":"uint256","indexed":false,"internalType":"uint256"}],"anonymous":false},{"type":"event","name":"MembershipAdded","inputs":[{"name":"tokenId","type":"uint256","indexed":true,"internalType":"uint256"},{"name":"community","type":"address","indexed":true,"internalType":"address"},{"name":"metadata","type":"string","indexed":false,"internalType":"string"},{"name":"timestamp","type":"uint256","indexed":false,"internalType":"uint256"}],"anonymous":false},{"type":"event","name":"MembershipDeactivated","inputs":[{"name":"tokenId","type":"uint256","indexed":true,"internalType":"uint256"},{"name":"community","type":"address","indexed":true,"internalType":"address"},{"name":"timestamp","type":"uint256","indexed":false,"internalType":"uint256"}],"anonymous":false},{"type":"event","name":"MinLockAmountUpdated","inputs":[{"name":"oldAmount","type":"uint256","indexed":false,"internalType":"uint256"},{"name":"newAmount","type":"uint256","indexed":false,"internalType":"uint256"},{"name":"timestamp","type":"uint256","indexed":false,"internalType":"uint256"}],"anonymous":false},{"type":"event","name":"MintFeeUpdated","inputs":[{"name":"oldFee","type":"uint256","indexed":false,"internalType":"uint256"},{"name":"newFee","type":"uint256","indexed":false,"internalType":"uint256"},{"name":"timestamp","type":"uint256","indexed":false,"internalType":"uint256"}],"anonymous":false},{"type":"event","name":"NFTBound","inputs":[{"name":"tokenId","type":"uint256","indexed":true,"internalType":"uint256"},{"name":"community","type":"address","indexed":true,"internalType":"address"},{"name":"nftContract","type":"address","indexed":false,"internalType":"address"},{"name":"nftTokenId","type":"uint256","indexed":false,"internalType":"uint256"},{"name":"timestamp","type":"uint256","indexed":false,"internalType":"uint256"}],"anonymous":false},{"type":"event","name":"NFTUnbound","inputs":[{"name":"tokenId","type":"uint256","indexed":true,"internalType":"uint256"},{"name":"community","type":"address","indexed":true,"internalType":"address"},{"name":"nftContract","type":"address","indexed":false,"internalType":"address"},{"name":"nftTokenId","type":"uint256","indexed":false,"internalType":"uint256"},{"name":"timestamp","type":"uint256","indexed":false,"internalType":"uint256"}],"anonymous":false},{"type":"event","name":"Paused","inputs":[{"name":"account","type":"address","indexed":false,"internalType":"address"}],"anonymous":false},{"type":"event","name":"RegistryUpdated","inputs":[{"name":"oldRegistry","type":"address","indexed":true,"internalType":"address"},{"name":"newRegistry","type":"address","indexed":true,"internalType":"address"},{"name":"timestamp","type":"uint256","indexed":false,"internalType":"uint256"}],"anonymous":false},{"type":"event","name":"ReputationCalculatorUpdated","inputs":[{"name":"oldCalculator","type":"address","indexed":true,"internalType":"address"},{"name":"newCalculator","type":"address","indexed":true,"internalType":"address"},{"name":"timestamp","type":"uint256","indexed":false,"internalType":"uint256"}],"anonymous":false},{"type":"event","name":"SBTBurned","inputs":[{"name":"user","type":"address","indexed":true,"internalType":"address"},{"name":"tokenId","type":"uint256","indexed":true,"internalType":"uint256"},{"name":"grossAmount","type":"uint256","indexed":false,"internalType":"uint256"},{"name":"netAmount","type":"uint256","indexed":false,"internalType":"uint256"},{"name":"timestamp","type":"uint256","indexed":false,"internalType":"uint256"}],"anonymous":false},{"type":"event","name":"SBTMinted","inputs":[{"name":"user","type":"address","indexed":true,"internalType":"address"},{"name":"tokenId","type":"uint256","indexed":true,"internalType":"uint256"},{"name":"firstCommunity","type":"address","indexed":true,"internalType":"address"},{"name":"timestamp","type":"uint256","indexed":false,"internalType":"uint256"}],"anonymous":false},{"type":"event","name":"Transfer","inputs":[{"name":"from","type":"address","indexed":true,"internalType":"address"},{"name":"to","type":"address","indexed":true,"internalType":"address"},{"name":"tokenId","type":"uint256","indexed":true,"internalType":"uint256"}],"anonymous":false},{"type":"event","name":"Unpaused","inputs":[{"name":"account","type":"address","indexed":false,"internalType":"address"}],"anonymous":false},{"type":"error","name":"ActivityTooFrequent","inputs":[{"name":"tokenId","type":"uint256","internalType":"uint256"},{"name":"community","type":"address","internalType":"address"},{"name":"nextAllowedTime","type":"uint256","internalType":"uint256"}]},{"type":"error","name":"AddressEmptyCode","inputs":[{"name":"target","type":"address","internalType":"address"}]},{"type":"error","name":"AddressInsufficientBalance","inputs":[{"name":"account","type":"address","internalType":"address"}]},{"type":"error","name":"E","inputs":[]},{"type":"error","name":"ERC721IncorrectOwner","inputs":[{"name":"sender","type":"address","internalType":"address"},{"name":"tokenId","type":"uint256","internalType":"uint256"},{"name":"owner","type":"address","internalType":"address"}]},{"type":"error","name":"ERC721InsufficientApproval","inputs":[{"name":"operator","type":"address","internalType":"address"},{"name":"tokenId","type":"uint256","internalType":"uint256"}]},{"type":"error","name":"ERC721InvalidApprover","inputs":[{"name":"approver","type":"address","internalType":"address"}]},{"type":"error","name":"ERC721InvalidOperator","inputs":[{"name":"operator","type":"address","internalType":"address"}]},{"type":"error","name":"ERC721InvalidOwner","inputs":[{"name":"owner","type":"address","internalType":"address"}]},{"type":"error","name":"ERC721InvalidReceiver","inputs":[{"name":"receiver","type":"address","internalType":"address"}]},{"type":"error","name":"ERC721InvalidSender","inputs":[{"name":"sender","type":"address","internalType":"address"}]},{"type":"error","name":"ERC721NonexistentToken","inputs":[{"name":"tokenId","type":"uint256","internalType":"uint256"}]},{"type":"error","name":"EnforcedPause","inputs":[]},{"type":"error","name":"ExpectedPause","inputs":[]},{"type":"error","name":"FailedInnerCall","inputs":[]},{"type":"error","name":"ReentrancyGuardReentrantCall","inputs":[]},{"type":"error","name":"SafeERC20FailedOperation","inputs":[{"name":"token","type":"address","internalType":"address"}]}],"bytecode":{"object":"0x60c060405234610241576163f66080813803918261001c81610471565b9384928339810103126102415761003281610496565b9061003f60208201610496565b610057606061005060408501610496565b9301610496565b926100626040610471565b601981527f4d7963656c69756d20536f756c20426f756e6420546f6b656e0000000000000060208201526100966040610471565b6005815264135e54d09560da1b6020820152815190916001600160401b038211610378575f5490600182811c92168015610467575b602083101461035a5781601f8493116103fa575b50602090601f8311600114610397575f9261038c575b50508160011b915f199060031b1c1916175f555b8051906001600160401b0382116103785760015490600182811c9216801561036e575b602083101461035a5781601f8493116102ec575b50602090601f8311600114610286575f9261027b575b50508160011b915f199060031b1c1916176001555b600160068190556007805460ff19169055601555670429d069189e000060165567016345785d8a00006017556001600160a01b038116151580610269575b80610257575b80610245575b156102415760805260a052601280546001600160a01b039283166001600160a01b03199182161790915560138054939092169216919091179055604051615f4b90816104ab8239608051818181610c380152818161256a01528181612ca20152613644015260a051818181610b4f0152818161249801528181612bd70152818161354f0152613e7b0152f35b5f80fd5b506001600160a01b03841615156101b5565b506001600160a01b03831615156101af565b506001600160a01b03821615156101a9565b015190505f80610156565b60015f9081528281209350601f198516905b8181106102d457509084600195949392106102bc575b505050811b0160015561016b565b01515f1960f88460031b161c191690555f80806102ae565b92936020600181928786015181550195019301610298565b60015f529091507fb10e2d527612073b26eecdfd717e6a320cf44b4afac2b0732d9fcbe2b7fa0cf6601f840160051c81019160208510610350575b90601f859493920160051c01905b8181106103425750610140565b5f8155849350600101610335565b9091508190610327565b634e487b7160e01b5f52602260045260245ffd5b91607f169161012c565b634e487b7160e01b5f52604160045260245ffd5b015190505f806100f5565b5f8080528281209350601f198516905b8181106103e257509084600195949392106103ca575b505050811b015f55610109565b01515f1960f88460031b161c191690555f80806103bd565b929360206001819287860151815501950193016103a7565b5f80529091507f290decd9548b62a8d60345a988386fc84ba6bc95484008f6362f93160ef3e563601f840160051c8101916020851061045d575b90601f859493920160051c01905b81811061044f57506100df565b5f8155849350600101610442565b9091508190610434565b91607f16916100cb565b6040519190601f01601f191682016001600160401b0381118382101761037857604052565b51906001600160a01b03821682036102415756fe6080806040526004361015610012575f80fd5b5f905f3560e01c90816301ffc9a7146144905750806306433b1b1461443f57806306fdde031461433c578063081812fc146142d45780630880427514614299578063095ea7b31461411d5780630f68ae401461407557806311c4517014613c4057806313966db514613c055780631ab5d828146134ec5780631d8c24bc146134ae57806323b872dd146134965780632d5a7f4f146124bc5780632f7c88f5146132b65780633f4ba83a146131b657806342842e0e1461318c5780634f8cc065146130bf578063556697da14612fb05780635bb5bf0c14612f5b5780635c975abb14612f1a5780635f91c81f14612a135780636352211e146129b857806370a082311461292257806371eb90a11461282757806375794a3c146127eb5780637607163c146126a2578063776fafac1461260b5780637e2157911461258e5780637f6b337b1461251f57806380f4b8c8146124bc578063826600ce1461244d5780638456cb5914612373578063908c10181461230257806395d89b41146121f7578063a1141b0714612186578063a22cb4651461207d578063a610965014611f9e578063a91ee0dc14611ebb578063b240e66014611e79578063b3dae80614611c22578063b88d4fde14611ba0578063bead051314611a2d578063bf1fb0f214611951578063c0d0aa69146118ff578063c87b56dd1461188a578063ccbc10d014611838578063e2bbdb26146113cc578063e523af4f14611316578063e9763063146112db578063e985e9c51461125d578063eddd0d9c146111b9578063ee10e34214611088578063ee888da814610e94578063f190923d1461097a578063f1f5c75014610922578063f5671343146108cf578063f868eaac14610854578063f87e54e6146107dc578063fc82835b1461037c578063fccc2813146103415763ffa1ad74146102bd575f80fd5b3461033e57807ffffffffffffffffffffffffffffffffffffffffffffffffffffffffffffffffc36011261033e5761033a6040516102fc604082614687565b600581527f322e342e33000000000000000000000000000000000000000000000000000000602082015260405191829160208352602083019061457d565b0390f35b80fd5b503461033e57807ffffffffffffffffffffffffffffffffffffffffffffffffffffffffffffffffc36011261033e57602060405161dead8152f35b503461033e5760407ffffffffffffffffffffffffffffffffffffffffffffffffffffffffffffffffc36011261033e576103b46145c0565b9073ffffffffffffffffffffffffffffffffffffffff602435926103d661587a565b6103de6158ae565b169182156107d857338252600860205260408220549081156107a3576040517f6352211e000000000000000000000000000000000000000000000000000000008152816004820152602081602481885afa8491816107a7575b50610464576004847f92bbf6e8000000000000000000000000000000000000000000000000000000008152fd5b73ffffffffffffffffffffffffffffffffffffffff339116036107a357818352600c60205260408320805490845b82811061073457505050818352600c60205260408320604051906104b58261464f565b8582526020820183815260408301904282526060840192600184528054906801000000000000000082101561070757906104f491600182018155615833565b9490946106db579360038899947f0f1a8906736c78a471cc32968d84aa14e22db9c63ad38c7895050aab65f4377197946105ac9473ffffffffffffffffffffffffffffffffffffffff8060609a5116167fffffffffffffffffffffffff000000000000000000000000000000000000000086541617855551600185015551600284015551151591019060ff7fffffffffffffffffffffffffffffffffffffffffffffffffffffffffffffff0083541691151516179055565b848652600d60205273ffffffffffffffffffffffffffffffffffffffff604087205416156105ef575b6040519182526020820152426040820152a3600160065580f35b61069a6040516105fe8161466b565b83815260026020820184815260408301908a8252898b52600d60205273ffffffffffffffffffffffffffffffffffffffff8060408d20955116167fffffffffffffffffffffffff000000000000000000000000000000000000000085541617845551600184015551151591019060ff7fffffffffffffffffffffffffffffffffffffffffffffffffffffffffffffff0083541691151516179055565b847f17083d9db57b83da9888c8f9fb738b37c422ada12a65aeb0c47fa47c1b2ec83060806040518581528460208201525f60408201524287820152a26105d5565b6024887f4e487b7100000000000000000000000000000000000000000000000000000000815280600452fd5b6024897f4e487b710000000000000000000000000000000000000000000000000000000081526041600452fd5b8673ffffffffffffffffffffffffffffffffffffffff6107548385615833565b505416148061078c575b80610774575b61077057600101610492565b8580fd5b5060ff60036107838385615833565b50015416610764565b5083600161079a8385615833565b5001541461075e565b8280fd5b6107ca91925060203d6020116107d1575b6107c28183614687565b810190615565565b905f610437565b503d6107b8565b5080fd5b503461033e5760207ffffffffffffffffffffffffffffffffffffffffffffffffffffffffffffffffc36011261033e57610840604061033a9273ffffffffffffffffffffffffffffffffffffffff6108326145c0565b168152600e60205220614949565b60405191829160208352602083019061457d565b503461033e5760207ffffffffffffffffffffffffffffffffffffffffffffffffffffffffffffffffc36011261033e5760406060916004358152600d6020522073ffffffffffffffffffffffffffffffffffffffff8154169060ff600260018301549201541690604051928352602083015215156040820152f35b503461033e5760407ffffffffffffffffffffffffffffffffffffffffffffffffffffffffffffffffc36011261033e57602061091a61090c6145c0565b6109146145e3565b90615746565b604051908152f35b503461033e5773ffffffffffffffffffffffffffffffffffffffff6040819261094a36614886565b95909116825260106020528282209082526020522091165f52602052602060ff60405f2054166040519015158152f35b503461033e5761098936614756565b919061099361587a565b61099b6158ae565b6109a4336158e7565b156107d85773ffffffffffffffffffffffffffffffffffffffff8116908282151580610e8a575b80610e7d575b15610e79578284526008602052604084205480610ccd575050601554906109f782614cdb565b6015558193610b0a600196604051610a0e8161464f565b8681526003602082013381526040830142815273ffffffffffffffffffffffffffffffffffffffff60608501928d84528a89526009602052818060408b20975116167fffffffffffffffffffffffff0000000000000000000000000000000000000000875416178655511673ffffffffffffffffffffffffffffffffffffffff8d860191167fffffffffffffffffffffffff0000000000000000000000000000000000000000825416179055516002840155519101558583526008602052846040842055848352600a6020526040832060405191610aeb83614606565b3383524260208401524260408401528960608401526080830152614a8e565b828152600b6020526040812073ffffffffffffffffffffffffffffffffffffffff33165f526020528060405f205573ffffffffffffffffffffffffffffffffffffffff7f000000000000000000000000000000000000000000000000000000000000000016601654813b156107a3576040517f1720af7000000000000000000000000000000000000000000000000000000000815273ffffffffffffffffffffffffffffffffffffffff85166004820152602481019190915260606044820152600560648201527f4d795342540000000000000000000000000000000000000000000000000000006084820152908290829060a490829084905af18015610cc25790849291610ca6575b5050610c6291610c5d6017548273ffffffffffffffffffffffffffffffffffffffff7f000000000000000000000000000000000000000000000000000000000000000016615987565b6159f0565b604051914283527ff5491bdb765a4be5a1bdc9bfd09cf61e1b89962ac33ed2e928f11a59a5e7233160203394a45b6001600655604080519182529115156020820152f35b81925090610cb391614687565b805f1261033e57808391610c14565b6040513d84823e3d90fd5b93849195935080925052600b6020526040812073ffffffffffffffffffffffffffffffffffffffff33165f5260205260405f2054838252600a6020526040822054811090811591610e42575b501561033e57828152600a602052610d5c6040822060405190610d3b82614606565b33825242602083015242604083015260016060830152846080830152614a8e565b828152600a60205260408120547fffffffffffffffffffffffffffffffffffffffffffffffffffffffffffffffff8101908111610e1557816040918560039452600b60205282822073ffffffffffffffffffffffffffffffffffffffff33165f52602052825f205584815260096020522001610dd88154614cdb565b9055817fdce074e613075d639af3f726477d52ac48d3fbdb03f4aa8a9b1e6cede312db1060405180610e0d3395429083614d08565b0390a3610c90565b6024827f4e487b710000000000000000000000000000000000000000000000000000000081526011600452fd5b610e589150848352600a60205260408320614a07565b505473ffffffffffffffffffffffffffffffffffffffff163314155f610d19565b8380fd5b50610400855111156109d1565b50845115156109cb565b503461033e5760207ffffffffffffffffffffffffffffffffffffffffffffffffffffffffffffffffc36011261033e5760043567ffffffffffffffff81116107d857610ee4903690600401614738565b90610eee336158e7565b1561033e57338152600e60205260408120825167ffffffffffffffff811161105b57610f1a82546148f8565b601f8111611016575b506020601f8211600114610f7b57839482939492610f70575b50507fffffffffffffffffffffffffffffffffffffffffffffffffffffffffffffffff8260011b9260031b1c191617905580f35b015190505f80610f3c565b828452808420907fffffffffffffffffffffffffffffffffffffffffffffffffffffffffffffffe08316855b818110610ffe57509583600195969710610fc7575b505050811b01905580f35b01517fffffffffffffffffffffffffffffffffffffffffffffffffffffffffffffffff60f88460031b161c191690555f8080610fbc565b9192602060018192868b015181550194019201610fa7565b82845260208420601f830160051c81019160208410611051575b601f0160051c01905b8181106110465750610f23565b848155600101611039565b9091508190611030565b6024837f4e487b710000000000000000000000000000000000000000000000000000000081526041600452fd5b503461033e5773ffffffffffffffffffffffffffffffffffffffff6110ac36614886565b929091166040517f6352211e000000000000000000000000000000000000000000000000000000008152826004820152602081602481855afa859181611198575b5061111a576004857f92bbf6e8000000000000000000000000000000000000000000000000000000008152fd5b73ffffffffffffffffffffffffffffffffffffffff33911603610e7957835260106020526040832090835260205273ffffffffffffffffffffffffffffffffffffffff6040832091165f5260205260405f2060017fffffffffffffffffffffffffffffffffffffffffffffffffffffffffffffff0082541617905580f35b6111b291925060203d6020116107d1576107c28183614687565b905f6110ed565b503461033e5760207ffffffffffffffffffffffffffffffffffffffffffffffffffffffffffffffffc36011261033e5760043573ffffffffffffffffffffffffffffffffffffffff6013541633036107d8577fd3950a5507479ea19c5c7766f5191546ace60f0a00dc360d52ce083b58f223319060175490806017556112576040519283924291846040919493926060820195825260208201520152565b0390a180f35b503461033e5760407ffffffffffffffffffffffffffffffffffffffffffffffffffffffffffffffffc36011261033e5773ffffffffffffffffffffffffffffffffffffffff60406112ac6145c0565b92826112b66145e3565b9416815260056020522091165f52602052602060ff60405f2054166040519015158152f35b503461033e57807ffffffffffffffffffffffffffffffffffffffffffffffffffffffffffffffffc36011261033e576020604051614fb38152f35b503461033e5780611326366147c1565b92915061133161587a565b6113396158ae565b303b156107d8576040517ffc82835b00000000000000000000000000000000000000000000000000000000815273ffffffffffffffffffffffffffffffffffffffff9190911660048201526024810192909252808260448183305af180156113bf576113a8575b600160065580f35b6113b191614687565b805f1261033e575f816113a0565b50604051903d90823e3d90fd5b503461033e5760607ffffffffffffffffffffffffffffffffffffffffffffffffffffffffffffffffc36011261033e576114046145c0565b61140c6145e3565b60443567ffffffffffffffff8111610e795761142c903690600401614738565b9173ffffffffffffffffffffffffffffffffffffffff601354163303610e795761145461587a565b61145c6158ae565b73ffffffffffffffffffffffffffffffffffffffff811680151580611819575b8061180f575b80611802575b156117fe57611496836158e7565b156117fe57808552600860205260408520548061163c57506116056020956015549384916114c383614cdb565b6015556115eb83986040516114d78161464f565b878152600373ffffffffffffffffffffffffffffffffffffffff8d83019b169a8b81526040830142815273ffffffffffffffffffffffffffffffffffffffff6060850192600184528a8952602060099052818060408b20975116167fffffffffffffffffffffffff0000000000000000000000000000000000000000875416178655511673ffffffffffffffffffffffffffffffffffffffff6001860191167fffffffffffffffffffffffff00000000000000000000000000000000000000008254161790555160028401555191015586835260088b52846040842055848352600a8b5260408320604051916115cc83614606565b8a8352428d840152426040840152600160608401526080830152614a8e565b828152600b895260408120875f52895260405f20556159f0565b7ff5491bdb765a4be5a1bdc9bfd09cf61e1b89962ac33ed2e928f11a59a5e7233185604051428152a45b6001600655604051908152f35b93915050828452600b6020526040842073ffffffffffffffffffffffffffffffffffffffff83165f5260205260405f2054838552600a60205260408520548110908115916117b0575b5015610e7957828452600a6020526116e0604085209273ffffffffffffffffffffffffffffffffffffffff604051916116bd83614606565b169384825242602083015242604083015260016060830152836080830152614a8e565b828452600a60205260408420547fffffffffffffffffffffffffffffffffffffffffffffffffffffffffffffffff81019081116117835761177b849260036040887fdce074e613075d639af3f726477d52ac48d3fbdb03f4aa8a9b1e6cede312db10958760209b52600b8b52828220895f528b52825f205586815260098a52200161176b8154614cdb565b9055604051918291429083614d08565b0390a361162f565b6024857f4e487b710000000000000000000000000000000000000000000000000000000081526011600452fd5b73ffffffffffffffffffffffffffffffffffffffff91506117dc90858752600a60205260408720614a07565b50541673ffffffffffffffffffffffffffffffffffffffff831614155f611685565b8480fd5b5061040084511115611488565b5083511515611482565b5073ffffffffffffffffffffffffffffffffffffffff8316151561147c565b503461033e57807ffffffffffffffffffffffffffffffffffffffffffffffffffffffffffffffffc36011261033e57602073ffffffffffffffffffffffffffffffffffffffff60145416604051908152f35b503461033e5760207ffffffffffffffffffffffffffffffffffffffffffffffffffffffffffffffffc36011261033e576118c560043561584c565b50806040516118d5602082614687565b525061033a6040516118e8602082614687565b5f815260405191829160208352602083019061457d565b503461033e57807ffffffffffffffffffffffffffffffffffffffffffffffffffffffffffffffffc36011261033e57602073ffffffffffffffffffffffffffffffffffffffff60135416604051908152f35b503461033e5760207ffffffffffffffffffffffffffffffffffffffffffffffffffffffffffffffffc36011261033e57604081608092606083516119948161464f565b8281528260208201528285820152015260043581526009602052206040516119bb8161464f565b73ffffffffffffffffffffffffffffffffffffffff8254169182825273ffffffffffffffffffffffffffffffffffffffff806001830154166020840190815260606003600285015494604087019586520154940193845260405194855251166020840152516040830152516060820152f35b503461033e5760207ffffffffffffffffffffffffffffffffffffffffffffffffffffffffffffffffc36011261033e57611a656145c0565b611a6d61587a565b611a756158ae565b3382526008602052604082205480151580611b79575b156107a357808352600b6020526040832073ffffffffffffffffffffffffffffffffffffffff83165f5260205260405f2054818452600a6020526040842054811015610e7957611ae690828552600a60205260408520614a07565b5073ffffffffffffffffffffffffffffffffffffffff80825416931680931480611b6b575b15610e79576003017fffffffffffffffffffffffffffffffffffffffffffffffffffffffffffffff0081541690557fee0396c067d25a2fde86b8e1c13e3995b0940b5f98651052d79fada14ea7dba56020604051428152a3600160065580f35b5060ff600382015416611b0b565b503373ffffffffffffffffffffffffffffffffffffffff611b998361584c565b1614611a8b565b503461033e5760807ffffffffffffffffffffffffffffffffffffffffffffffffffffffffffffffffc36011261033e57611bd86145c0565b611be06145e3565b6064359167ffffffffffffffff8311610e795736602384011215610e7957611c15611c1f933690602481600401359101614702565b9160443591615591565b80f35b503461033e5760407ffffffffffffffffffffffffffffffffffffffffffffffffffffffffffffffffc36011261033e57611c5a6145c0565b602435611c6561587a565b611c6d6158ae565b33835260086020526040832054918215610e795773ffffffffffffffffffffffffffffffffffffffff16906040517f6352211e000000000000000000000000000000000000000000000000000000008152816004820152602081602481865afa859181611e58575b50611d02576004857f92bbf6e8000000000000000000000000000000000000000000000000000000008152fd5b73ffffffffffffffffffffffffffffffffffffffff1633148015611e18575b15610e79577f17083d9db57b83da9888c8f9fb738b37c422ada12a65aeb0c47fa47c1b2ec83091608091611df7604051611d5a8161466b565b838152600260208201848152604083019060018252898b52600d60205273ffffffffffffffffffffffffffffffffffffffff8060408d20955116167fffffffffffffffffffffffff000000000000000000000000000000000000000085541617845551600184015551151591019060ff7fffffffffffffffffffffffffffffffffffffffffffffffffffffffffffffff0083541691151516179055565b604051918252602082015260016040820152426060820152a2600160065580f35b508184526010602052604084208185526020526040842073ffffffffffffffffffffffffffffffffffffffff33165f5260205260ff60405f205416611d21565b611e7291925060203d6020116107d1576107c28183614687565b905f611cd5565b503461033e5760207ffffffffffffffffffffffffffffffffffffffffffffffffffffffffffffffffc36011261033e57602061091a611eb66145c0565b6153b9565b503461033e5760207ffffffffffffffffffffffffffffffffffffffffffffffffffffffffffffffffc36011261033e57611ef36145c0565b73ffffffffffffffffffffffffffffffffffffffff6013541633036107d85773ffffffffffffffffffffffffffffffffffffffff1680156107d857601254817fffffffffffffffffffffffff00000000000000000000000000000000000000008216176012557f724c89272c35417e239c6cd89ada342e0717632938f38b47eaacecacf291ace2602073ffffffffffffffffffffffffffffffffffffffff604051934285521692a380f35b503461033e5760207ffffffffffffffffffffffffffffffffffffffffffffffffffffffffffffffffc36011261033e57611fd66145c0565b73ffffffffffffffffffffffffffffffffffffffff6013541633036107d85773ffffffffffffffffffffffffffffffffffffffff601454911690817fffffffffffffffffffffffff00000000000000000000000000000000000000008216176014557fb71a92720c720f655d24a8ebbeeb4c9875d85189ca58d32cb0e6997aa5e6c291602073ffffffffffffffffffffffffffffffffffffffff604051934285521692a380f35b503461033e5760407ffffffffffffffffffffffffffffffffffffffffffffffffffffffffffffffffc36011261033e576120b56145c0565b6024359081151590818303610e795773ffffffffffffffffffffffffffffffffffffffff1691821561215a5761212b90338552600560205260408520845f5260205260405f209060ff7fffffffffffffffffffffffffffffffffffffffffffffffffffffffffffffff0083541691151516179055565b6040519081527f17307eab39ab6107e8899845ad3d59bd9653f200f220920489ca2b5937696c3160203392a380f35b602484847f5b08ba18000000000000000000000000000000000000000000000000000000008252600452fd5b503461033e5760407ffffffffffffffffffffffffffffffffffffffffffffffffffffffffffffffffc36011261033e5773ffffffffffffffffffffffffffffffffffffffff60406121d56145e3565b926004358152600b6020522091165f52602052602060405f2054604051908152f35b503461033e57807ffffffffffffffffffffffffffffffffffffffffffffffffffffffffffffffffc36011261033e57604051908060015490612238826148f8565b80855291600181169081156122bd5750600114612260575b61033a8461084081860382614687565b600181527fb10e2d527612073b26eecdfd717e6a320cf44b4afac2b0732d9fcbe2b7fa0cf6939250905b8082106122a35750909150810160200161084082612250565b91926001816020925483858801015201910190929161228a565b7fffffffffffffffffffffffffffffffffffffffffffffffffffffffffffffff001660208087019190915292151560051b850190920192506108409150839050612250565b503461033e5760407ffffffffffffffffffffffffffffffffffffffffffffffffffffffffffffffffc36011261033e5773ffffffffffffffffffffffffffffffffffffffff60406123516145e3565b92600435815260116020522091165f52602052602060405f2054604051908152f35b503461033e57807ffffffffffffffffffffffffffffffffffffffffffffffffffffffffffffffffc36011261033e5773ffffffffffffffffffffffffffffffffffffffff60135416330361033e576123c961587a565b60017fffffffffffffffffffffffffffffffffffffffffffffffffffffffffffffff0060075416176007557f62e78cea01bee320cd4e420270b5ea74000d11b0c9f74754ebdbfc544b05a2586020604051338152a16040514281527f80170b5fcdd2bf1e0660ef4b8851f86685f64d41b1a19de1471947ece8725aac60203392a280f35b503461033e57807ffffffffffffffffffffffffffffffffffffffffffffffffffffffffffffffffc36011261033e57602060405173ffffffffffffffffffffffffffffffffffffffff7f0000000000000000000000000000000000000000000000000000000000000000168152f35b503461033e5760207ffffffffffffffffffffffffffffffffffffffffffffffffffffffffffffffffc36011261033e57604060209173ffffffffffffffffffffffffffffffffffffffff61250e6145c0565b168152600883522054604051908152f35b503461033e57807ffffffffffffffffffffffffffffffffffffffffffffffffffffffffffffffffc36011261033e57602060405173ffffffffffffffffffffffffffffffffffffffff7f0000000000000000000000000000000000000000000000000000000000000000168152f35b503461033e5760607ffffffffffffffffffffffffffffffffffffffffffffffffffffffffffffffffc36011261033e5760ff60406020926125cd6145e3565b6004358252600f855273ffffffffffffffffffffffffffffffffffffffff83832091165f528452815f20604435825284522054166040519015158152f35b503461033e5760207ffffffffffffffffffffffffffffffffffffffffffffffffffffffffffffffffc36011261033e576040608091600435815260096020522073ffffffffffffffffffffffffffffffffffffffff8154169073ffffffffffffffffffffffffffffffffffffffff600182015416906003600282015491015491604051938452602084015260408301526060820152f35b503461033e5760207ffffffffffffffffffffffffffffffffffffffffffffffffffffffffffffffffc36011261033e576004358152600c6020526040812080546126eb81615258565b906126f96040519283614687565b80825260208201809385526020852085915b83831061278f57868587604051928392602084019060208552518091526040840192915b81811061273d575050500390f35b91935091602060806001926060875173ffffffffffffffffffffffffffffffffffffffff815116835284810151858401526040810151604084015201511515606082015201940191019184939261272f565b600460206001926040516127a28161464f565b73ffffffffffffffffffffffffffffffffffffffff865416815284860154838201526002860154604082015260ff6003870154161515606082015281520192019201919061270b565b503461033e57807ffffffffffffffffffffffffffffffffffffffffffffffffffffffffffffffffc36011261033e576020601554604051908152f35b503461033e5760407ffffffffffffffffffffffffffffffffffffffffffffffffffffffffffffffffc36011261033e576004356128626145e3565b906060608060405161287381614606565b85815285602082015285604082015285838201520152808352600b6020526040832073ffffffffffffffffffffffffffffffffffffffff83165f5260205260405f205490808452600a6020526040842054821015610e79576128e9916128e3918552600a60205260408520614a07565b50615270565b9073ffffffffffffffffffffffffffffffffffffffff808351169116036107d85761033a90604051918291602083526020830190614833565b503461033e5760207ffffffffffffffffffffffffffffffffffffffffffffffffffffffffffffffffc36011261033e5773ffffffffffffffffffffffffffffffffffffffff61296f6145c0565b16801561298c578160409160209352600383522054604051908152f35b6024827f89c62b6400000000000000000000000000000000000000000000000000000000815280600452fd5b503461033e5760207ffffffffffffffffffffffffffffffffffffffffffffffffffffffffffffffffc36011261033e5760206129f560043561584c565b73ffffffffffffffffffffffffffffffffffffffff60405191168152f35b503461033e57612a2236614756565b9190612a2c61587a565b612a346158ae565b8173ffffffffffffffffffffffffffffffffffffffff82169182151580612f10575b80612f03575b15610e7957612a6a906158e7565b80612e65575b156107a3573383526008602052604083205480612d28575050601554612a9581614cdb565b6015558092612ba8600195604051612aac8161464f565b3381526003602082018781526040830142815273ffffffffffffffffffffffffffffffffffffffff60608501928c84528989526009602052818060408b20975116167fffffffffffffffffffffffff0000000000000000000000000000000000000000875416178655511673ffffffffffffffffffffffffffffffffffffffff8c860191167fffffffffffffffffffffffff0000000000000000000000000000000000000000825416179055516002840155519101553383526008602052836040842055838352600a6020526040832060405191612b8983614606565b8683524260208401524260408401528860608401526080830152614a8e565b818152600b60205260408120835f526020528060405f205573ffffffffffffffffffffffffffffffffffffffff7f000000000000000000000000000000000000000000000000000000000000000016601654813b156107a3576040517f1720af70000000000000000000000000000000000000000000000000000000008152336004820152602481019190915260606044820152600560648201527f4d795342540000000000000000000000000000000000000000000000000000006084820152908290829060a490829084905af18015610cc257612d13575b5050612cc76017543373ffffffffffffffffffffffffffffffffffffffff7f000000000000000000000000000000000000000000000000000000000000000016615987565b612cd181336159f0565b6040514281527ff5491bdb765a4be5a1bdc9bfd09cf61e1b89962ac33ed2e928f11a59a5e7233160203392a46001600655604080519182529115156020820152f35b612d1e828092614687565b61033e5780612c82565b92838195929552600b60205260408120835f5260205260405f2054848252600a602052836040832054821091821592612e2c575b50501561033e57838152600a602052612da06040822060405190612d7f82614606565b85825242602083015242604083015260016060830152846080830152614a8e565b838152600a60205260408120547fffffffffffffffffffffffffffffffffffffffffffffffffffffffffffffffff8101908111610e155784926003604084610e0d94877fdce074e613075d639af3f726477d52ac48d3fbdb03f4aa8a9b1e6cede312db109752600b602052828220895f52602052825f20558681526009602052200161176b8154614cdb565b73ffffffffffffffffffffffffffffffffffffffff919250612e5990878552600a60205260408520614a07565b5054161415835f612d5c565b506024602073ffffffffffffffffffffffffffffffffffffffff60125416604051928380927ff6a537440000000000000000000000000000000000000000000000000000000082528760048301525afa908115612ef8578491612ec9575b50612a70565b612eeb915060203d602011612ef1575b612ee38183614687565b810190614a5c565b5f612ec3565b503d612ed9565b6040513d86823e3d90fd5b5061040085511115612a5c565b5084511515612a56565b503461033e57807ffffffffffffffffffffffffffffffffffffffffffffffffffffffffffffffffc36011261033e57602060ff600754166040519015158152f35b503461033e5760407ffffffffffffffffffffffffffffffffffffffffffffffffffffffffffffffffc36011261033e576020612fa6612f986145c0565b612fa06145e3565b906152ce565b6040519015158152f35b503461033e5760207ffffffffffffffffffffffffffffffffffffffffffffffffffffffffffffffffc36011261033e576004358152600a602052604081208054612ff981615258565b906130076040519283614687565b80825260208201809385526020852085915b8383106130a157868587604051928392602084019060208552518091526040840160408260051b8601019392905b82821061305657505050500390f35b91936020613091827fffffffffffffffffffffffffffffffffffffffffffffffffffffffffffffffc060019597998495030186528851614833565b9601920192018594939192613047565b600560206001926130b185615270565b815201920192019190613019565b503461033e5760207ffffffffffffffffffffffffffffffffffffffffffffffffffffffffffffffffc36011261033e576130f76145c0565b6013549073ffffffffffffffffffffffffffffffffffffffff821690813303610e795773ffffffffffffffffffffffffffffffffffffffff16918215610e79577fffffffffffffffffffffffff0000000000000000000000000000000000000000839116176013557f90de8705b1aaf3966be0e8ec8acf9aed10a6d3d0d572ec8f96112409e2820c616020604051428152a380f35b503461033e57611c1f61319e366147c1565b90604051926131ae602085614687565b858452615591565b503461033e57807ffffffffffffffffffffffffffffffffffffffffffffffffffffffffffffffffc36011261033e5773ffffffffffffffffffffffffffffffffffffffff60135416330361033e5760075460ff81161561328e577fffffffffffffffffffffffffffffffffffffffffffffffffffffffffffffff00166007557f5db9ee0a495bf2e6ff9c91a7834c1ba4fdd244a5e8aa4e537bd38aeae4b073aa6020604051338152a16040514281527f107553d8191d85b405879cf752997865edd48d94e20bda4dd27223c94b31a7cc60203392a280f35b6004827f8dfc202b000000000000000000000000000000000000000000000000000000008152fd5b503461033e5760207ffffffffffffffffffffffffffffffffffffffffffffffffffffffffffffffffc36011261033e576132ee6145c0565b6132f661587a565b6132ff336158e7565b156107d85773ffffffffffffffffffffffffffffffffffffffff1681526008602052604081205480156107d857808252600b6020526040822073ffffffffffffffffffffffffffffffffffffffff33165f5260205260405f2054818352600a602052604083205481109081613460575b50156107d85780825260116020526040822073ffffffffffffffffffffffffffffffffffffffff33165f5260205260405f2054801590811561341c575b50156107d85780825260116020526040822073ffffffffffffffffffffffffffffffffffffffff33165f5260205260405f204290556040519062093a80420482524260208301527f0bd2c5444bc0126737809a3970e1c3bc8cf29e5efb7d5448cbaa6a9c1af8120760403393a380f35b905061012c8101809111613433574210155f6133ac565b6024837f4e487b710000000000000000000000000000000000000000000000000000000081526011600452fd5b6134769150828452600a60205260408420614a07565b505473ffffffffffffffffffffffffffffffffffffffff1633145f61336f565b503461033e57611c1f6134a8366147c1565b91614f8b565b503461033e5760207ffffffffffffffffffffffffffffffffffffffffffffffffffffffffffffffffc36011261033e5761033a610840600435614d87565b346138b6576134fa36614756565b9061350361587a565b61350b6158ae565b5f9073ffffffffffffffffffffffffffffffffffffffff81169081151580613bfb575b80613bee575b156138b657613542906158e7565b80613b6b575b156138b6577f00000000000000000000000000000000000000000000000000000000000000009173ffffffffffffffffffffffffffffffffffffffff8316926040517fa0821be3000000000000000000000000000000000000000000000000000000008152336004820152602081602481885afa9081156138ab575f91613b39575b506016549081811015613b31576135e091614a74565b6135ec60175482614a81565b6040517f23b872dd00000000000000000000000000000000000000000000000000000000602082015233602482015230604482015260648082019290925290815273ffffffffffffffffffffffffffffffffffffffff7f000000000000000000000000000000000000000000000000000000000000000016919061367b90613675608482614687565b83615dea565b80613a28575b506136d6915060175490604051917fa9059cbb00000000000000000000000000000000000000000000000000000000602084015261dead60248401526044830152604482526136d1606483614687565b615dea565b335f52600860205260405f205480155f146138ba5750506015546136f981614cdb565b60155580926137ed6001956040516137108161464f565b3381526003602082018781526040830142815273ffffffffffffffffffffffffffffffffffffffff60608501928c8452895f526009602052818060405f20975116167fffffffffffffffffffffffff0000000000000000000000000000000000000000875416178655511673ffffffffffffffffffffffffffffffffffffffff8c860191167fffffffffffffffffffffffff000000000000000000000000000000000000000082541617905551600284015551910155335f5260086020528360405f2055835f52600a60205260405f2060405191612b8983614606565b815f52600b60205260405f20835f526020525f604081205560165490803b156138b6576040517f1720af70000000000000000000000000000000000000000000000000000000008152336004820152602481019290925260606044830152600560648301527f4d7953425400000000000000000000000000000000000000000000000000000060848301525f90829060a490829084905af180156138ab5761389b575b50612cd181336159f0565b5f6138a591614687565b5f613890565b6040513d5f823e3d90fd5b5f80fd5b8093505f94919452600b60205260405f20825f5260205260405f2054835f52600a6020528260405f20548210918215926139ef575b5050156138b657825f52600a60205261393360405f206040519061391282614606565b84825242602083015242604083015260016060830152836080830152614a8e565b825f52600a60205260405f2054907fffffffffffffffffffffffffffffffffffffffffffffffffffffffffffffffff82019182116139c257610e0d7fdce074e613075d639af3f726477d52ac48d3fbdb03f4aa8a9b1e6cede312db10918593845f52600b60205260405f20865f5260205260405f2055835f526009602052600360405f200161176b8154614cdb565b7f4e487b71000000000000000000000000000000000000000000000000000000005f52601160045260245ffd5b73ffffffffffffffffffffffffffffffffffffffff919250613a1c90865f52600a60205260405f20614a07565b505416141582866138ef565b6040517f095ea7b300000000000000000000000000000000000000000000000000000000815273ffffffffffffffffffffffffffffffffffffffff939093166004840152602483018190526020836044815f865af19081156138ab57613ad193602092613b16575b506040517f2ee40908000000000000000000000000000000000000000000000000000000008152336004820152602481019190915292839081906044820190565b03815f895af19182156138ab576136d6921561368157613b089060203d602011613b0f575b613b008183614687565b810190614a4d565b5086613681565b503d613af6565b613b2c90833d8511612ef157612ee38183614687565b613a90565b50505f6135e0565b90506020813d602011613b63575b81613b5460209383614687565b810103126138b65751866135ca565b3d9150613b47565b506024602073ffffffffffffffffffffffffffffffffffffffff60125416604051928380927ff6a537440000000000000000000000000000000000000000000000000000000082528660048301525afa9081156138ab575f91613bcf575b50613548565b613be8915060203d602011612ef157612ee38183614687565b84613bc9565b5061040084511115613534565b508351151561352e565b346138b6575f7ffffffffffffffffffffffffffffffffffffffffffffffffffffffffffffffffc3601126138b6576020601754604051908152f35b346138b6575f7ffffffffffffffffffffffffffffffffffffffffffffffffffffffffffffffffc3601126138b657613c7661587a565b613c7e6158ae565b335f52600860205260405f20548015158061404e575b156138b657805f52600a60205260405f205f5b8154811015613d56578060ff6003613cc160019486614a07565b50015416613cd0575b01613ca7565b6003613cdc8285614a07565b50017fffffffffffffffffffffffffffffffffffffffffffffffffffffffffffffff00815416905573ffffffffffffffffffffffffffffffffffffffff613d238285614a07565b505416847fee0396c067d25a2fde86b8e1c13e3995b0940b5f98651052d79fada14ea7dba56020604051428152a3613cca565b82805f52600c60205260405f208054905f815581613ff1575b5050335f5260086020525f6040812055805f52600260205273ffffffffffffffffffffffffffffffffffffffff60405f205416158015613fe9575b156138b657805f52600260205273ffffffffffffffffffffffffffffffffffffffff60405f2054168015908115613f7b575b825f52600260205260405f207fffffffffffffffffffffffff00000000000000000000000000000000000000008154169055825f827fddf252ad1be2c89b69c2b068fc378daa952ba7f163c4a11628f55a4df523b3ef8280a450613f50576016546040517f965af6c70000000000000000000000000000000000000000000000000000000081523360048201526024810191909152906020826044815f7f000000000000000000000000000000000000000000000000000000000000000073ffffffffffffffffffffffffffffffffffffffff165af19081156138ab575f91613f1b575b602092506016547f108d98610c6944880c68d31a01ab6252b635e7c7a9728687f31e68a76538c86560405180613f0b3394874291846040919493926060820195825260208201520152565b0390a36001600655604051908152f35b90506020823d602011613f48575b81613f3660209383614687565b810103126138b6576020915190613ec0565b3d9150613f29565b7f7e273289000000000000000000000000000000000000000000000000000000005f5260045260245ffd5b613fb2835f52600460205260405f207fffffffffffffffffffffffff00000000000000000000000000000000000000008154169055565b805f52600360205260405f207fffffffffffffffffffffffffffffffffffffffffffffffffffffffffffffffff8154019055613ddc565b506001613daa565b7f3fffffffffffffffffffffffffffffffffffffffffffffffffffffffffffffff821682036139c2575f5260205f209060021b8101905b81811015613d6f57805f600492555f60018201555f60028201555f600382015501614028565b503373ffffffffffffffffffffffffffffffffffffffff61406e8361584c565b1614613c94565b346138b65760207ffffffffffffffffffffffffffffffffffffffffffffffffffffffffffffffffc3601126138b65760043573ffffffffffffffffffffffffffffffffffffffff6013541633036138b65780156138b6577f5d1f56e31e5dc1f29354822b887b1463ececf7edfad7c39216980b7dfd7ea97d9060165490806016556141186040519283924291846040919493926060820195825260208201520152565b0390a1005b346138b65760407ffffffffffffffffffffffffffffffffffffffffffffffffffffffffffffffffc3601126138b6576141546145c0565b6024356141608161584c565b33151580614279575b8061422c575b61420057819073ffffffffffffffffffffffffffffffffffffffff80851691167f8c5be1e5ebec7d5bd14f71427d1e84f3dd0314c0f7b2291e5b200ac8c7c3b9255f80a45f52600460205273ffffffffffffffffffffffffffffffffffffffff60405f2091167fffffffffffffffffffffffff00000000000000000000000000000000000000008254161790555f80f35b7fa9fbf51f000000000000000000000000000000000000000000000000000000005f523360045260245ffd5b5073ffffffffffffffffffffffffffffffffffffffff81165f52600560205260405f2073ffffffffffffffffffffffffffffffffffffffff33165f5260205260ff60405f2054161561416f565b503373ffffffffffffffffffffffffffffffffffffffff82161415614169565b346138b6575f7ffffffffffffffffffffffffffffffffffffffffffffffffffffffffffffffffc3601126138b6576020601654604051908152f35b346138b65760207ffffffffffffffffffffffffffffffffffffffffffffffffffffffffffffffffc3601126138b65760043561430f8161584c565b505f526004602052602073ffffffffffffffffffffffffffffffffffffffff60405f205416604051908152f35b346138b6575f7ffffffffffffffffffffffffffffffffffffffffffffffffffffffffffffffffc3601126138b6576040515f5f54614379816148f8565b80845290600181169081156143fd57506001146143a1575b61033a8361084081850382614687565b5f8080527f290decd9548b62a8d60345a988386fc84ba6bc95484008f6362f93160ef3e563939250905b8082106143e357509091508101602001610840614391565b9192600181602092548385880101520191019092916143cb565b7fffffffffffffffffffffffffffffffffffffffffffffffffffffffffffffff001660208086019190915291151560051b840190910191506108409050614391565b346138b6575f7ffffffffffffffffffffffffffffffffffffffffffffffffffffffffffffffffc3601126138b657602073ffffffffffffffffffffffffffffffffffffffff60125416604051908152f35b346138b65760207ffffffffffffffffffffffffffffffffffffffffffffffffffffffffffffffffc3601126138b657600435907fffffffff0000000000000000000000000000000000000000000000000000000082168092036138b657817f80ac58cd0000000000000000000000000000000000000000000000000000000060209314908115614553575b8115614529575b5015158152f35b7f01ffc9a70000000000000000000000000000000000000000000000000000000091501483614522565b7f5b5e139f000000000000000000000000000000000000000000000000000000008114915061451b565b907fffffffffffffffffffffffffffffffffffffffffffffffffffffffffffffffe0601f602080948051918291828752018686015e5f8582860101520116010190565b6004359073ffffffffffffffffffffffffffffffffffffffff821682036138b657565b6024359073ffffffffffffffffffffffffffffffffffffffff821682036138b657565b60a0810190811067ffffffffffffffff82111761462257604052565b7f4e487b71000000000000000000000000000000000000000000000000000000005f52604160045260245ffd5b6080810190811067ffffffffffffffff82111761462257604052565b6060810190811067ffffffffffffffff82111761462257604052565b90601f7fffffffffffffffffffffffffffffffffffffffffffffffffffffffffffffffe0910116810190811067ffffffffffffffff82111761462257604052565b67ffffffffffffffff811161462257601f017fffffffffffffffffffffffffffffffffffffffffffffffffffffffffffffffe01660200190565b92919261470e826146c8565b9161471c6040519384614687565b8294818452818301116138b6578281602093845f960137010152565b9080601f830112156138b65781602061475393359101614702565b90565b9060407ffffffffffffffffffffffffffffffffffffffffffffffffffffffffffffffffc8301126138b65760043573ffffffffffffffffffffffffffffffffffffffff811681036138b657916024359067ffffffffffffffff82116138b65761475391600401614738565b7ffffffffffffffffffffffffffffffffffffffffffffffffffffffffffffffffc60609101126138b65760043573ffffffffffffffffffffffffffffffffffffffff811681036138b6579060243573ffffffffffffffffffffffffffffffffffffffff811681036138b6579060443590565b9060a060806147539373ffffffffffffffffffffffffffffffffffffffff81511684526020810151602085015260408101516040850152606081015115156060850152015191816080820152019061457d565b7ffffffffffffffffffffffffffffffffffffffffffffffffffffffffffffffffc60609101126138b65760043573ffffffffffffffffffffffffffffffffffffffff811681036138b657906024359060443573ffffffffffffffffffffffffffffffffffffffff811681036138b65790565b90600182811c9216801561493f575b602083101461491257565b7f4e487b71000000000000000000000000000000000000000000000000000000005f52602260045260245ffd5b91607f1691614907565b9060405191825f82549261495c846148f8565b80845293600181169081156149c75750600114614983575b5061498192500383614687565b565b90505f9291925260205f20905f915b8183106149ab575050906020614981928201015f614974565b6020919350806001915483858901015201910190918492614992565b602093506149819592507fffffffffffffffffffffffffffffffffffffffffffffffffffffffffffffff0091501682840152151560051b8201015f614974565b8054821015614a20575f52600560205f20910201905f90565b7f4e487b71000000000000000000000000000000000000000000000000000000005f52603260045260245ffd5b908160209103126138b6575190565b908160209103126138b6575180151581036138b65790565b919082039182116139c257565b919082018092116139c257565b91909180546801000000000000000081101561462257614ab391600182018155614a07565b614caf57600460809173ffffffffffffffffffffffffffffffffffffffff80865116167fffffffffffffffffffffffff00000000000000000000000000000000000000008254161781556020850151600182015560408501516002820155614b4f60608601511515600383019060ff7fffffffffffffffffffffffffffffffffffffffffffffffffffffffffffffff0083541691151516179055565b0192015191825167ffffffffffffffff811161462257614b6f82546148f8565b601f8111614c6a575b506020601f8211600114614bcf57819293945f92614bc4575b50507fffffffffffffffffffffffffffffffffffffffffffffffffffffffffffffffff8260011b9260031b1c1916179055565b015190505f80614b91565b7fffffffffffffffffffffffffffffffffffffffffffffffffffffffffffffffe0821690835f52805f20915f5b818110614c5257509583600195969710614c1b575b505050811b019055565b01517fffffffffffffffffffffffffffffffffffffffffffffffffffffffffffffffff60f88460031b161c191690555f8080614c11565b9192602060018192868b015181550194019201614bfc565b825f5260205f20601f830160051c81019160208410614ca5575b601f0160051c01905b818110614c9a5750614b78565b5f8155600101614c8d565b9091508190614c84565b7f4e487b71000000000000000000000000000000000000000000000000000000005f525f60045260245ffd5b7fffffffffffffffffffffffffffffffffffffffffffffffffffffffffffffffff81146139c25760010190565b929190614d1f60209160408652604086019061457d565b930152565b6020818303126138b65780519067ffffffffffffffff82116138b6570181601f820112156138b657805190614d58826146c8565b92614d666040519485614687565b828452602083830101116138b657815f9260208093018386015e8301015290565b805f52600d60205260ff600260405f2001541680614f60575b614eca575b805f52600d60205260ff600260405f200154161580614e9f575b614dfc575b5f52600960205273ffffffffffffffffffffffffffffffffffffffff600160405f200154165f52600e60205261475360405f20614949565b805f52600d60205273ffffffffffffffffffffffffffffffffffffffff60405f205416815f52600d6020525f60016040822001546024604051809481937fc87b56dd00000000000000000000000000000000000000000000000000000000835260048301525afa5f9181614e7b575b50614e765750614dc4565b905090565b614e989192503d805f833e614e908183614687565b810190614d24565b905f614e6b565b50805f52600d60205273ffffffffffffffffffffffffffffffffffffffff60405f2054161515614dbf565b805f52600d60205273ffffffffffffffffffffffffffffffffffffffff60405f205416815f52600d6020525f60016040822001546024604051809481937fc87b56dd00000000000000000000000000000000000000000000000000000000835260048301525afa5f9181614f44575b50614e765750614da5565b614f599192503d805f833e614e908183614687565b905f614f39565b50805f52600d60205273ffffffffffffffffffffffffffffffffffffffff60405f2054161515614da0565b919073ffffffffffffffffffffffffffffffffffffffff16801561522c57815f52600260205273ffffffffffffffffffffffffffffffffffffffff60405f205416158015615225575b156138b657815f52600260205273ffffffffffffffffffffffffffffffffffffffff60405f2054169282331515928361513d575b73ffffffffffffffffffffffffffffffffffffffff9350856150cf575b805f52600360205260405f2060018154019055815f52600260205260405f20817fffffffffffffffffffffffff0000000000000000000000000000000000000000825416179055857fddf252ad1be2c89b69c2b068fc378daa952ba7f163c4a11628f55a4df523b3ef5f80a41680830361509e57505050565b7f64283d7b000000000000000000000000000000000000000000000000000000005f5260045260245260445260645ffd5b615106825f52600460205260405f207fffffffffffffffffffffffff00000000000000000000000000000000000000008154169055565b855f52600360205260405f207fffffffffffffffffffffffffffffffffffffffffffffffffffffffffffffffff8154019055615025565b91929050806151b4575b1561515457828291615008565b8284615185577f7e273289000000000000000000000000000000000000000000000000000000005f5260045260245ffd5b7f177e802f000000000000000000000000000000000000000000000000000000005f523360045260245260445ffd5b5033841480156151ef575b806151475750825f5260046020523373ffffffffffffffffffffffffffffffffffffffff60405f20541614615147565b50835f52600560205260405f2073ffffffffffffffffffffffffffffffffffffffff33165f5260205260ff60405f2054166151bf565b505f614fd4565b7f64a0ae92000000000000000000000000000000000000000000000000000000005f525f60045260245ffd5b67ffffffffffffffff81116146225760051b60200190565b9060405161527d81614606565b60806152c96004839573ffffffffffffffffffffffffffffffffffffffff8154168552600181015460208601526002810154604086015260ff6003820154161515606086015201614949565b910152565b73ffffffffffffffffffffffffffffffffffffffff165f52600860205260405f2054801561538957805f52600b60205260405f2073ffffffffffffffffffffffffffffffffffffffff83165f5260205260405f205490805f52600a60205260405f205482101561538257615350916128e3915f52600a60205260405f20614a07565b9073ffffffffffffffffffffffffffffffffffffffff808351169116149081615377575090565b606091500151151590565b5050505f90565b50505f90565b91908260409103126138b6576020825192015190565b8051821015614a205760209160051b010190565b73ffffffffffffffffffffffffffffffffffffffff1690815f52600860205260405f205491821561555f5773ffffffffffffffffffffffffffffffffffffffff6014541690816154d4575b50505f91805f52600a60205260405f2090815461542081615258565b9261542e6040519485614687565b81845260208401905f5260205f205f915b8383106154b657505050505f5b82518110156154b157606061546182856153a5565b510151615471575b60010161544c565b936154a96001916154a373ffffffffffffffffffffffffffffffffffffffff61549a89886153a5565b51511685615b7f565b90614a81565b949050615469565b505050565b600560206001926154c685615270565b81520192019201919061543f565b60409060648251809481937f9c4b343600000000000000000000000000000000000000000000000000000000835260048301525f60248301528760448301525afa5f918161552c575b506155285780615404565b9150565b61554f91925060403d604011615558575b6155478183614687565b81019061538f565b9050905f61551d565b503d61553d565b505f9150565b908160209103126138b6575173ffffffffffffffffffffffffffffffffffffffff811681036138b65790565b9061559d838284614f8b565b803b6155aa575b50505050565b60209161561673ffffffffffffffffffffffffffffffffffffffff8093169560405195869485947f150b7a02000000000000000000000000000000000000000000000000000000008652336004870152166024850152604484015260806064840152608483019061457d565b03815f865af15f91816156e9575b5061566b5750615632615dbb565b8051908161566657827f64a0ae92000000000000000000000000000000000000000000000000000000005f5260045260245ffd5b602001fd5b7fffffffff000000000000000000000000000000000000000000000000000000007f150b7a02000000000000000000000000000000000000000000000000000000009116036156be57505f8080806155a4565b7f64a0ae92000000000000000000000000000000000000000000000000000000005f5260045260245ffd5b9091506020813d60201161573e575b8161570560209383614687565b810103126138b657517fffffffff00000000000000000000000000000000000000000000000000000000811681036138b657905f615624565b3d91506156f8565b9073ffffffffffffffffffffffffffffffffffffffff82165f52600860205260405f205480156153825773ffffffffffffffffffffffffffffffffffffffff60145416928361579b575b506147539250615b7f565b604080517f9c4b343600000000000000000000000000000000000000000000000000000000815273ffffffffffffffffffffffffffffffffffffffff92831660048201529184166024830152604482018390529093849060649082905afa5f9381615811575b5061580c5782615790565b505090565b61582b91945060403d604011615558576155478183614687565b50925f615801565b8054821015614a20575f5260205f209060021b01905f90565b805f52600260205273ffffffffffffffffffffffffffffffffffffffff60405f205416908115613f50575090565b60ff6007541661588657565b7fd93c0665000000000000000000000000000000000000000000000000000000005f5260045ffd5b6002600654146158bf576002600655565b7f3ee5aeb5000000000000000000000000000000000000000000000000000000005f5260045ffd5b73ffffffffffffffffffffffffffffffffffffffff601254169081156153895773ffffffffffffffffffffffffffffffffffffffff602460209260405194859384927f6b10437f0000000000000000000000000000000000000000000000000000000084521660048301525afa5f9181615966575b5061475357505f90565b61598091925060203d602011612ef157612ee38183614687565b905f61595c565b6040517f23b872dd00000000000000000000000000000000000000000000000000000000602082015273ffffffffffffffffffffffffffffffffffffffff909216602483015261dead6044830152606480830193909352918152614981916136d1608483614687565b73ffffffffffffffffffffffffffffffffffffffff1690811561522c57805f52600260205273ffffffffffffffffffffffffffffffffffffffff60405f205416158015615b78575b156138b657805f52600260205273ffffffffffffffffffffffffffffffffffffffff60405f205416908115159283615b0a575b805f52600360205260405f2060018154019055815f52600260205260405f20817fffffffffffffffffffffffff0000000000000000000000000000000000000000825416179055827fddf252ad1be2c89b69c2b068fc378daa952ba7f163c4a11628f55a4df523b3ef5f80a450615ade57565b7f73c6ac6e000000000000000000000000000000000000000000000000000000005f525f60045260245ffd5b615b41825f52600460205260405f207fffffffffffffffffffffffff00000000000000000000000000000000000000008154169055565b825f52600360205260405f207fffffffffffffffffffffffffffffffffffffffffffffffffffffffffffffffff8154019055615a6b565b505f615a38565b90815f52600b60205260405f2073ffffffffffffffffffffffffffffffffffffffff82165f5260205260405f2054825f52600a60205260405f2054811091821592615d7f575b508115615d59575b50615d54575f908152600c6020908152604080832060099092528220548154919073ffffffffffffffffffffffffffffffffffffffff16835b838110615c1f5750505050601401806014116139c25790565b60ff6003615c2d8386615833565b5001541615615d4c5773ffffffffffffffffffffffffffffffffffffffff615c558285615833565b50541660206001615c668487615833565b5001546024604051809481937f6352211e00000000000000000000000000000000000000000000000000000000835260048301525afa5f9181615d2c575b50615cb457506001905b01615c06565b73ffffffffffffffffffffffffffffffffffffffff83919692961603615d235762278d00615cf06002615ce78887615833565b50015442614a74565b0490818004600114821517156139c257600191615d1491600c8211615d1a57614a81565b94615cae565b600c9150614a81565b93600190615cae565b615d4591925060203d81116107d1576107c28183614687565b905f615ca4565b600190615cae565b505f90565b60ff9150615d74600391845f52600a60205260405f20614a07565b50015416155f615bcd565b909150825f52600a60205273ffffffffffffffffffffffffffffffffffffffff80615dad8460405f20614a07565b50541691161415905f615bc5565b3d15615de5573d90615dcc826146c8565b91615dda6040519384614687565b82523d5f602084013e565b606090565b5f8073ffffffffffffffffffffffffffffffffffffffff615e2093169360208151910182865af1615e19615dbb565b9083615e7c565b8051908115159182615e61575b5050615e365750565b7f5274afe7000000000000000000000000000000000000000000000000000000005f5260045260245ffd5b615e749250602080918301019101614a5c565b155f80615e2d565b90615eb95750805115615e9157805190602001fd5b7f1425ea42000000000000000000000000000000000000000000000000000000005f5260045ffd5b81511580615f0c575b615eca575090565b73ffffffffffffffffffffffffffffffffffffffff907f9996b315000000000000000000000000000000000000000000000000000000005f521660045260245ffd5b50803b15615ec256fea2646970667358221220f123432b9f7fb58eeb620ebcde15fcadc1f1bc93257ce21f947009896ace0cf464736f6c634300081c0033","linkReferences":{}},"methodIdentifiers":{"BURN_ADDRESS()":"fccc2813","GTOKEN()":"7f6b337b","GTOKEN_STAKING()":"826600ce","REGISTRY()":"06433b1b","VERSION()":"ffa1ad74","VERSION_CODE()":"e9763063","approve(address,uint256)":"095ea7b3","avatarDelegation(address,uint256,address)":"f1f5c750","balanceOf(address)":"70a08231","bindCommunityNFT(address,address,uint256)":"e523af4f","bindNFT(address,uint256)":"fc82835b","burnSBT()":"11c45170","communityDefaultAvatar(address)":"f87e54e6","daoMultisig()":"c0d0aa69","delegateAvatarUsage(address,uint256,address)":"ee10e342","getAllNFTBindings(uint256)":"7607163c","getApproved(uint256)":"081812fc","getAvatarURI(uint256)":"1d8c24bc","getCommunityMembership(uint256,address)":"71eb90a1","getCommunityReputation(address,address)":"f5671343","getGlobalReputation(address)":"b240e660","getMemberships(uint256)":"556697da","getSBTData(uint256)":"bf1fb0f2","getUserSBT(address)":"80f4b8c8","isApprovedForAll(address,address)":"e985e9c5","lastActivityTime(uint256,address)":"908c1018","leaveCommunity(address)":"bead0513","membershipIndex(uint256,address)":"a1141b07","minLockAmount()":"08804275","mintFee()":"13966db5","mintOrAddMembership(address,string)":"f190923d","mintWithAutoStake(address,string)":"1ab5d828","name()":"06fdde03","nextTokenId()":"75794a3c","ownerOf(uint256)":"6352211e","pause()":"8456cb59","paused()":"5c975abb","recordActivity(address)":"2f7c88f5","reputationCalculator()":"ccbc10d0","safeMint(address,address,string)":"e2bbdb26","safeTransferFrom(address,address,uint256)":"42842e0e","safeTransferFrom(address,address,uint256,bytes)":"b88d4fde","sbtAvatars(uint256)":"f868eaac","sbtData(uint256)":"776fafac","setApprovalForAll(address,bool)":"a22cb465","setAvatar(address,uint256)":"b3dae806","setCommunityDefaultAvatar(string)":"ee888da8","setDAOMultisig(address)":"4f8cc065","setMinLockAmount(uint256)":"0f68ae40","setMintFee(uint256)":"eddd0d9c","setRegistry(address)":"a91ee0dc","setReputationCalculator(address)":"a6109650","supportsInterface(bytes4)":"01ffc9a7","symbol()":"95d89b41","tokenURI(uint256)":"c87b56dd","transferFrom(address,address,uint256)":"23b872dd","unpause()":"3f4ba83a","userMint(address,string)":"5f91c81f","userToSBT(address)":"2d5a7f4f","verifyCommunityMembership(address,address)":"5bb5bf0c","weeklyActivity(uint256,address,uint256)":"7e215791"},"id":40}