{"abi":[{"type":"constructor","inputs":[{"name":"_gtokenStaking","type":"address","internalType":"address"}],"stateMutability":"nonpayable"},{"type":"function","name":"GTOKEN_STAKING","inputs":[],"outputs":[{"name":"","type":"address","internalType":"contract IGTokenStaking"}],"stateMutability":"view"},{"type":"function","name":"MIN_STAKE_AOA","inputs":[],"outputs":[{"name":"","type":"uint256","internalType":"uint256"}],"stateMutability":"view"},{"type":"function","name":"MIN_STAKE_SUPER","inputs":[],"outputs":[{"name":"","type":"uint256","internalType":"uint256"}],"stateMutability":"view"},{"type":"function","name":"SLASH_PERCENTAGE","inputs":[],"outputs":[{"name":"","type":"uint256","internalType":"uint256"}],"stateMutability":"view"},{"type":"function","name":"SLASH_THRESHOLD","inputs":[],"outputs":[{"name":"","type":"uint256","internalType":"uint256"}],"stateMutability":"view"},{"type":"function","name":"communities","inputs":[{"name":"","type":"address","internalType":"address"}],"outputs":[{"name":"name","type":"string","internalType":"string"},{"name":"ensName","type":"string","internalType":"string"},{"name":"description","type":"string","internalType":"string"},{"name":"website","type":"string","internalType":"string"},{"name":"logoURI","type":"string","internalType":"string"},{"name":"twitterHandle","type":"string","internalType":"string"},{"name":"githubOrg","type":"string","internalType":"string"},{"name":"telegramGroup","type":"string","internalType":"string"},{"name":"xPNTsToken","type":"address","internalType":"address"},{"name":"mode","type":"uint8","internalType":"enum Registry.PaymasterMode"},{"name":"paymasterAddress","type":"address","internalType":"address"},{"name":"community","type":"address","internalType":"address"},{"name":"registeredAt","type":"uint256","internalType":"uint256"},{"name":"lastUpdatedAt","type":"uint256","internalType":"uint256"},{"name":"isActive","type":"bool","internalType":"bool"},{"name":"memberCount","type":"uint256","internalType":"uint256"}],"stateMutability":"view"},{"type":"function","name":"communityByENS","inputs":[{"name":"","type":"string","internalType":"string"}],"outputs":[{"name":"","type":"address","internalType":"address"}],"stateMutability":"view"},{"type":"function","name":"communityByName","inputs":[{"name":"","type":"string","internalType":"string"}],"outputs":[{"name":"","type":"address","internalType":"address"}],"stateMutability":"view"},{"type":"function","name":"communityBySBT","inputs":[{"name":"","type":"address","internalType":"address"}],"outputs":[{"name":"","type":"address","internalType":"address"}],"stateMutability":"view"},{"type":"function","name":"communityList","inputs":[{"name":"","type":"uint256","internalType":"uint256"}],"outputs":[{"name":"","type":"address","internalType":"address"}],"stateMutability":"view"},{"type":"function","name":"communityStakes","inputs":[{"name":"","type":"address","internalType":"address"}],"outputs":[{"name":"stGTokenLocked","type":"uint256","internalType":"uint256"},{"name":"failureCount","type":"uint256","internalType":"uint256"},{"name":"lastFailureTime","type":"uint256","internalType":"uint256"},{"name":"totalSlashed","type":"uint256","internalType":"uint256"},{"name":"isActive","type":"bool","internalType":"bool"}],"stateMutability":"view"},{"type":"function","name":"deactivateCommunity","inputs":[],"outputs":[],"stateMutability":"nonpayable"},{"type":"function","name":"getCommunities","inputs":[{"name":"offset","type":"uint256","internalType":"uint256"},{"name":"limit","type":"uint256","internalType":"uint256"}],"outputs":[{"name":"","type":"address[]","internalType":"address[]"}],"stateMutability":"view"},{"type":"function","name":"getCommunityByENS","inputs":[{"name":"ensName","type":"string","internalType":"string"}],"outputs":[{"name":"communityAddress","type":"address","internalType":"address"}],"stateMutability":"view"},{"type":"function","name":"getCommunityByName","inputs":[{"name":"name","type":"string","internalType":"string"}],"outputs":[{"name":"communityAddress","type":"address","internalType":"address"}],"stateMutability":"view"},{"type":"function","name":"getCommunityBySBT","inputs":[{"name":"sbtAddress","type":"address","internalType":"address"}],"outputs":[{"name":"communityAddress","type":"address","internalType":"address"}],"stateMutability":"view"},{"type":"function","name":"getCommunityCount","inputs":[],"outputs":[{"name":"count","type":"uint256","internalType":"uint256"}],"stateMutability":"view"},{"type":"function","name":"getCommunityProfile","inputs":[{"name":"communityAddress","type":"address","internalType":"address"}],"outputs":[{"name":"profile","type":"tuple","internalType":"struct Registry.CommunityProfile","components":[{"name":"name","type":"string","internalType":"string"},{"name":"ensName","type":"string","internalType":"string"},{"name":"description","type":"string","internalType":"string"},{"name":"website","type":"string","internalType":"string"},{"name":"logoURI","type":"string","internalType":"string"},{"name":"twitterHandle","type":"string","internalType":"string"},{"name":"githubOrg","type":"string","internalType":"string"},{"name":"telegramGroup","type":"string","internalType":"string"},{"name":"xPNTsToken","type":"address","internalType":"address"},{"name":"supportedSBTs","type":"address[]","internalType":"address[]"},{"name":"mode","type":"uint8","internalType":"enum Registry.PaymasterMode"},{"name":"paymasterAddress","type":"address","internalType":"address"},{"name":"community","type":"address","internalType":"address"},{"name":"registeredAt","type":"uint256","internalType":"uint256"},{"name":"lastUpdatedAt","type":"uint256","internalType":"uint256"},{"name":"isActive","type":"bool","internalType":"bool"},{"name":"memberCount","type":"uint256","internalType":"uint256"}]}],"stateMutability":"view"},{"type":"function","name":"getCommunityStatus","inputs":[{"name":"communityAddress","type":"address","internalType":"address"}],"outputs":[{"name":"isRegistered","type":"bool","internalType":"bool"},{"name":"isActive","type":"bool","internalType":"bool"}],"stateMutability":"view"},{"type":"function","name":"oracle","inputs":[],"outputs":[{"name":"","type":"address","internalType":"address"}],"stateMutability":"view"},{"type":"function","name":"owner","inputs":[],"outputs":[{"name":"","type":"address","internalType":"address"}],"stateMutability":"view"},{"type":"function","name":"reactivateCommunity","inputs":[],"outputs":[],"stateMutability":"nonpayable"},{"type":"function","name":"registerCommunity","inputs":[{"name":"profile","type":"tuple","internalType":"struct Registry.CommunityProfile","components":[{"name":"name","type":"string","internalType":"string"},{"name":"ensName","type":"string","internalType":"string"},{"name":"description","type":"string","internalType":"string"},{"name":"website","type":"string","internalType":"string"},{"name":"logoURI","type":"string","internalType":"string"},{"name":"twitterHandle","type":"string","internalType":"string"},{"name":"githubOrg","type":"string","internalType":"string"},{"name":"telegramGroup","type":"string","internalType":"string"},{"name":"xPNTsToken","type":"address","internalType":"address"},{"name":"supportedSBTs","type":"address[]","internalType":"address[]"},{"name":"mode","type":"uint8","internalType":"enum Registry.PaymasterMode"},{"name":"paymasterAddress","type":"address","internalType":"address"},{"name":"community","type":"address","internalType":"address"},{"name":"registeredAt","type":"uint256","internalType":"uint256"},{"name":"lastUpdatedAt","type":"uint256","internalType":"uint256"},{"name":"isActive","type":"bool","internalType":"bool"},{"name":"memberCount","type":"uint256","internalType":"uint256"}]},{"name":"stGTokenAmount","type":"uint256","internalType":"uint256"}],"outputs":[],"stateMutability":"nonpayable"},{"type":"function","name":"renounceOwnership","inputs":[],"outputs":[],"stateMutability":"nonpayable"},{"type":"function","name":"reportFailure","inputs":[{"name":"community","type":"address","internalType":"address"}],"outputs":[],"stateMutability":"nonpayable"},{"type":"function","name":"resetFailureCount","inputs":[{"name":"community","type":"address","internalType":"address"}],"outputs":[],"stateMutability":"nonpayable"},{"type":"function","name":"setOracle","inputs":[{"name":"_oracle","type":"address","internalType":"address"}],"outputs":[],"stateMutability":"nonpayable"},{"type":"function","name":"transferOwnership","inputs":[{"name":"newOwner","type":"address","internalType":"address"}],"outputs":[],"stateMutability":"nonpayable"},{"type":"function","name":"updateCommunityProfile","inputs":[{"name":"profile","type":"tuple","internalType":"struct Registry.CommunityProfile","components":[{"name":"name","type":"string","internalType":"string"},{"name":"ensName","type":"string","internalType":"string"},{"name":"description","type":"string","internalType":"string"},{"name":"website","type":"string","internalType":"string"},{"name":"logoURI","type":"string","internalType":"string"},{"name":"twitterHandle","type":"string","internalType":"string"},{"name":"githubOrg","type":"string","internalType":"string"},{"name":"telegramGroup","type":"string","internalType":"string"},{"name":"xPNTsToken","type":"address","internalType":"address"},{"name":"supportedSBTs","type":"address[]","internalType":"address[]"},{"name":"mode","type":"uint8","internalType":"enum Registry.PaymasterMode"},{"name":"paymasterAddress","type":"address","internalType":"address"},{"name":"community","type":"address","internalType":"address"},{"name":"registeredAt","type":"uint256","internalType":"uint256"},{"name":"lastUpdatedAt","type":"uint256","internalType":"uint256"},{"name":"isActive","type":"bool","internalType":"bool"},{"name":"memberCount","type":"uint256","internalType":"uint256"}]}],"outputs":[],"stateMutability":"nonpayable"},{"type":"event","name":"CommunityDeactivated","inputs":[{"name":"community","type":"address","indexed":true,"internalType":"address"},{"name":"reason","type":"string","indexed":false,"internalType":"string"}],"anonymous":false},{"type":"event","name":"CommunityReactivated","inputs":[{"name":"community","type":"address","indexed":true,"internalType":"address"}],"anonymous":false},{"type":"event","name":"CommunityRegistered","inputs":[{"name":"community","type":"address","indexed":true,"internalType":"address"},{"name":"name","type":"string","indexed":false,"internalType":"string"},{"name":"ensName","type":"string","indexed":false,"internalType":"string"},{"name":"mode","type":"uint8","indexed":false,"internalType":"enum Registry.PaymasterMode"},{"name":"stGTokenLocked","type":"uint256","indexed":false,"internalType":"uint256"}],"anonymous":false},{"type":"event","name":"CommunitySlashed","inputs":[{"name":"community","type":"address","indexed":true,"internalType":"address"},{"name":"amount","type":"uint256","indexed":false,"internalType":"uint256"},{"name":"newStake","type":"uint256","indexed":false,"internalType":"uint256"},{"name":"timestamp","type":"uint256","indexed":false,"internalType":"uint256"}],"anonymous":false},{"type":"event","name":"CommunityUpdated","inputs":[{"name":"community","type":"address","indexed":true,"internalType":"address"},{"name":"name","type":"string","indexed":false,"internalType":"string"}],"anonymous":false},{"type":"event","name":"FailureCountReset","inputs":[{"name":"community","type":"address","indexed":true,"internalType":"address"},{"name":"timestamp","type":"uint256","indexed":false,"internalType":"uint256"}],"anonymous":false},{"type":"event","name":"FailureReported","inputs":[{"name":"community","type":"address","indexed":true,"internalType":"address"},{"name":"failureCount","type":"uint256","indexed":false,"internalType":"uint256"},{"name":"timestamp","type":"uint256","indexed":false,"internalType":"uint256"}],"anonymous":false},{"type":"event","name":"OracleUpdated","inputs":[{"name":"oldOracle","type":"address","indexed":true,"internalType":"address"},{"name":"newOracle","type":"address","indexed":true,"internalType":"address"}],"anonymous":false},{"type":"event","name":"OwnershipTransferred","inputs":[{"name":"previousOwner","type":"address","indexed":true,"internalType":"address"},{"name":"newOwner","type":"address","indexed":true,"internalType":"address"}],"anonymous":false},{"type":"error","name":"CommunityAlreadyRegistered","inputs":[{"name":"community","type":"address","internalType":"address"}]},{"type":"error","name":"CommunityNotActive","inputs":[{"name":"community","type":"address","internalType":"address"}]},{"type":"error","name":"CommunityNotRegistered","inputs":[{"name":"community","type":"address","internalType":"address"}]},{"type":"error","name":"ENSAlreadyTaken","inputs":[{"name":"ensName","type":"string","internalType":"string"}]},{"type":"error","name":"InsufficientStake","inputs":[{"name":"provided","type":"uint256","internalType":"uint256"},{"name":"required","type":"uint256","internalType":"uint256"}]},{"type":"error","name":"InvalidAddress","inputs":[{"name":"addr","type":"address","internalType":"address"}]},{"type":"error","name":"NameAlreadyTaken","inputs":[{"name":"name","type":"string","internalType":"string"}]},{"type":"error","name":"OwnableInvalidOwner","inputs":[{"name":"owner","type":"address","internalType":"address"}]},{"type":"error","name":"OwnableUnauthorizedAccount","inputs":[{"name":"account","type":"address","internalType":"address"}]},{"type":"error","name":"ReentrancyGuardReentrantCall","inputs":[]},{"type":"error","name":"UnauthorizedOracle","inputs":[{"name":"caller","type":"address","internalType":"address"}]}],"bytecode":{"object":"0x60a03461012957601f614f6038819003918201601f19168301916001600160401b0383118484101761012d5780849260209460405283398101031261012957516001600160a01b03811690819003610129573315610116575f8054336001600160a01b0319821681178355604051939290916001600160a01b0316907f8be0079c531659141344cd1fd0a4f28419497f9722a3daafe3b4186f6b6457e09080a360017f9b779b17422d0df92223018b32b4d1fa46e071723d6817e2486d003becc55f0055801561010457608052614e1e90816101428239608051818181611ff401528181612a060152818161338e015281816134f10152818161382101526141170152f35b634726455360e11b5f5260045260245ffd5b631e4fbdf760e01b5f525f60045260245ffd5b5f80fd5b634e487b7160e01b5f52604160045260245ffdfe60806040526004361015610011575f80fd5b5f5f3560e01c8063209d7c3014613f0c578063261057a414613e93578063410087ad14613e095780634ca3e71d1461369657806351fe6ed214613dc8578063528282c414613d3657806364c39a4314613ca1578063687e708f14613c21578063715018a614613b875780637adbf97314613a9a5780637dc0d1d014613a495780637f2813d214613845578063826600ce146137d75780638da5cb5b1461378757806396fdbb13146136f35780639a4cabf91461369b5780639f29f13514613696578063a14d978914611efb578063a681b7ba14611e8d578063acab9a5d14611da6578063b198899514611d13578063b522205714611796578063b830e882146116ca578063c122b3cb1461168e578063c82f3150146115ad578063e6c520701461156b578063e7b89138146114e0578063ecd15c42146102495763f2fde38b14610159575f80fd5b346102465760207ffffffffffffffffffffffffffffffffffffffffffffffffffffffffffffffffc3601126102465773ffffffffffffffffffffffffffffffffffffffff6101a561436a565b6101ad614ae7565b16801561021a5773ffffffffffffffffffffffffffffffffffffffff8254827fffffffffffffffffffffffff00000000000000000000000000000000000000008216178455167f8be0079c531659141344cd1fd0a4f28419497f9722a3daafe3b4186f6b6457e08380a380f35b6024827f1e4fbdf700000000000000000000000000000000000000000000000000000000815280600452fd5b80fd5b50346102465760207ffffffffffffffffffffffffffffffffffffffffffffffffffffffffffffffffc3601126102465760043567ffffffffffffffff81116114dc576102999036906004016146b2565b3382526002602052600c604083200154156114b0573382526002602052604082208151602081519101206102cc82614543565b6020815191012003611344575b602082018051602081519101209060018301916102f583614543565b602081519101200361112a575b9192600984019290855b84548110156103cb578073ffffffffffffffffffffffffffffffffffffffff6103376001938861493c565b90549060031b1c16885260066020523373ffffffffffffffffffffffffffffffffffffffff60408a2054161461036e575b0161030c565b73ffffffffffffffffffffffffffffffffffffffff61038d828861493c565b90549060031b1c1688526006602052604088207fffffffffffffffffffffffff00000000000000000000000000000000000000008154169055610368565b50848694856101208401905b8151805182101561044c579073ffffffffffffffffffffffffffffffffffffffff61040482600194614998565b511680610413575b50016103d7565b895260066020526040892080547fffffffffffffffffffffffff000000000000000000000000000000000000000016331790558961040c565b5050858795855180519067ffffffffffffffff82116110fd57819061047188546144f2565b601f81116110cd575b50602090601f8311600114611030578a92611025575b50507fffffffffffffffffffffffffffffffffffffffffffffffffffffffffffffffff8260011b9260031b1c19161785555b5180519067ffffffffffffffff8211610ae85781906104e184546144f2565b601f8111610ff5575b50602090601f8311600114610f58578992610f4d575b50507fffffffffffffffffffffffffffffffffffffffffffffffffffffffffffffffff8260011b9260031b1c19161790555b60408401518051600285019167ffffffffffffffff8211610ae857819061055984546144f2565b601f8111610f1d575b50602090601f8311600114610e80578992610e75575b50507fffffffffffffffffffffffffffffffffffffffffffffffffffffffffffffffff8260011b9260031b1c19161790555b60608401518051600385019167ffffffffffffffff8211610ae85781906105d184546144f2565b601f8111610e45575b50602090601f8311600114610da8578992610d9d575b50507fffffffffffffffffffffffffffffffffffffffffffffffffffffffffffffffff8260011b9260031b1c19161790555b60808401518051600485019167ffffffffffffffff8211610ae857819061064984546144f2565b601f8111610d6d575b50602090601f8311600114610cd0578992610cc5575b50507fffffffffffffffffffffffffffffffffffffffffffffffffffffffffffffffff8260011b9260031b1c19161790555b60a08401518051600585019167ffffffffffffffff8211610ae85781906106c184546144f2565b601f8111610c95575b50602090601f8311600114610bf8578992610bed575b50507fffffffffffffffffffffffffffffffffffffffffffffffffffffffffffffffff8260011b9260031b1c19161790555b60c08401518051600685019167ffffffffffffffff8211610ae857819061073984546144f2565b601f8111610bbd575b50602090601f8311600114610b20578992610b15575b50507fffffffffffffffffffffffffffffffffffffffffffffffffffffffffffffffff8260011b9260031b1c19161790555b60e08401518051600785019167ffffffffffffffff8211610ae85781906107b184546144f2565b601f8111610aad575b50602090601f8311600114610a10578992610a05575b50507fffffffffffffffffffffffffffffffffffffffffffffffffffffffffffffffff8260011b9260031b1c19161790555b73ffffffffffffffffffffffffffffffffffffffff6101008501511673ffffffffffffffffffffffffffffffffffffffff6008850191167fffffffffffffffffffffffff0000000000000000000000000000000000000000825416179055519081519167ffffffffffffffff83116109d8576801000000000000000083116109d85760209082548484558085106109be575b500190855260208520855b8381106109945750505050610140820151600281101561096757610917906108cb600a84019182614ab0565b61016084015181547fffffffffffffffffffffff0000000000000000000000000000000000000000ff1660089190911b74ffffffffffffffffffffffffffffffffffffffff0016179055565b610200820151600f820155600d42910155517fd2bf2420b4c7f64105efa7d790048c7a28d5a4164c14d285235afbd1515e9149604051602081528061096133946020830190614601565b0390a280f35b6024847f4e487b710000000000000000000000000000000000000000000000000000000081526021600452fd5b600190602073ffffffffffffffffffffffffffffffffffffffff855116940193818401550161089f565b8388528288206109d2918101908601614a9a565b87610894565b6024867f4e487b710000000000000000000000000000000000000000000000000000000081526041600452fd5b0151905088806107d0565b848a52818a20927fffffffffffffffffffffffffffffffffffffffffffffffffffffffffffffffe0168a5b818110610a955750908460019594939210610a5e575b505050811b019055610802565b01517fffffffffffffffffffffffffffffffffffffffffffffffffffffffffffffffff60f88460031b161c19169055888080610a51565b92936020600181928786015181550195019301610a3b565b610ad890858b5260208b20601f850160051c81019160208610610ade575b601f0160051c0190614a9a565b896107ba565b9091508190610acb565b6024887f4e487b710000000000000000000000000000000000000000000000000000000081526041600452fd5b015190508880610758565b848a52818a20927fffffffffffffffffffffffffffffffffffffffffffffffffffffffffffffffe0168a5b818110610ba55750908460019594939210610b6e575b505050811b01905561078a565b01517fffffffffffffffffffffffffffffffffffffffffffffffffffffffffffffffff60f88460031b161c19169055888080610b61565b92936020600181928786015181550195019301610b4b565b610be790858b5260208b20601f850160051c81019160208610610ade57601f0160051c0190614a9a565b89610742565b0151905088806106e0565b848a52818a20927fffffffffffffffffffffffffffffffffffffffffffffffffffffffffffffffe0168a5b818110610c7d5750908460019594939210610c46575b505050811b019055610712565b01517fffffffffffffffffffffffffffffffffffffffffffffffffffffffffffffffff60f88460031b161c19169055888080610c39565b92936020600181928786015181550195019301610c23565b610cbf90858b5260208b20601f850160051c81019160208610610ade57601f0160051c0190614a9a565b896106ca565b015190508880610668565b848a52818a20927fffffffffffffffffffffffffffffffffffffffffffffffffffffffffffffffe0168a5b818110610d555750908460019594939210610d1e575b505050811b01905561069a565b01517fffffffffffffffffffffffffffffffffffffffffffffffffffffffffffffffff60f88460031b161c19169055888080610d11565b92936020600181928786015181550195019301610cfb565b610d9790858b5260208b20601f850160051c81019160208610610ade57601f0160051c0190614a9a565b89610652565b0151905088806105f0565b848a52818a20927fffffffffffffffffffffffffffffffffffffffffffffffffffffffffffffffe0168a5b818110610e2d5750908460019594939210610df6575b505050811b019055610622565b01517fffffffffffffffffffffffffffffffffffffffffffffffffffffffffffffffff60f88460031b161c19169055888080610de9565b92936020600181928786015181550195019301610dd3565b610e6f90858b5260208b20601f850160051c81019160208610610ade57601f0160051c0190614a9a565b896105da565b015190508880610578565b848a52818a20927fffffffffffffffffffffffffffffffffffffffffffffffffffffffffffffffe0168a5b818110610f055750908460019594939210610ece575b505050811b0190556105aa565b01517fffffffffffffffffffffffffffffffffffffffffffffffffffffffffffffffff60f88460031b161c19169055888080610ec1565b92936020600181928786015181550195019301610eab565b610f4790858b5260208b20601f850160051c81019160208610610ade57601f0160051c0190614a9a565b89610562565b015190508880610500565b848a52818a20927fffffffffffffffffffffffffffffffffffffffffffffffffffffffffffffffe0168a5b818110610fdd5750908460019594939210610fa6575b505050811b019055610532565b01517fffffffffffffffffffffffffffffffffffffffffffffffffffffffffffffffff60f88460031b161c19169055888080610f99565b92936020600181928786015181550195019301610f83565b61101f90858b5260208b20601f850160051c81019160208610610ade57601f0160051c0190614a9a565b896104ea565b015190508980610490565b888b52818b20927fffffffffffffffffffffffffffffffffffffffffffffffffffffffffffffffe0168b5b8181106110b5575090846001959493921061107e575b505050811b0185556104c2565b01517fffffffffffffffffffffffffffffffffffffffffffffffffffffffffffffffff60f88460031b161c19169055898080611071565b9293602060018192878601518155019501930161105b565b6110f790898c5260208c20601f850160051c81019160208610610ade57601f0160051c0190614a9a565b8a61047a565b6024897f4e487b710000000000000000000000000000000000000000000000000000000081526041600452fd5b805180519081611280575b50508154611142816144f2565b6111b7575b508051805180611159575b5050610302565b60209181839260405194859301835e8101600581520301902073ffffffffffffffffffffffffffffffffffffffff33167fffffffffffffffffffffffff00000000000000000000000000000000000000008254161790555f80611152565b6040519081876111c6836144f2565b926001811690811561124b5750600114611213575b6020925060058152030190207fffffffffffffffffffffffff000000000000000000000000000000000000000081541690555f611147565b5050838752816020882088905b83821061123357505060209181016111db565b60209192508060019154848701520191018391611220565b7fffffffffffffffffffffffffffffffffffffffffffffffffffffffffffffff001683525060209280151502820190506111db565b602080918373ffffffffffffffffffffffffffffffffffffffff9460405194859301835e810160058152030190205416151580611306575b6112c3575f80611135565b61130290516040519182917f3ba0ec9a000000000000000000000000000000000000000000000000000000008352602060048401526024830190614601565b0390fd5b506020808251604051928184925191829101835e8101600581520301902073ffffffffffffffffffffffffffffffffffffffff3391541614156112b8565b61135561135082614543565b614b93565b61135f8351614b93565b6040519173ffffffffffffffffffffffffffffffffffffffff825193602081818601968088835e810160048152030190205416151580611478575b611439576040518151602093928491839181908401835e810160048152030190207fffffffffffffffffffffffff00000000000000000000000000000000000000008154169055604051928391518091835e8101600481520301902073ffffffffffffffffffffffffffffffffffffffff33167fffffffffffffffffffffffff00000000000000000000000000000000000000008254161790556102d9565b61130285516040519182917fc8b1ffca000000000000000000000000000000000000000000000000000000008352602060048401526024830190614601565b5060405173ffffffffffffffffffffffffffffffffffffffff83518086845e820191600483526020813394030190205416141561139a565b6024827fb085342100000000000000000000000000000000000000000000000000000000815233600452fd5b5080fd5b50346102465760207ffffffffffffffffffffffffffffffffffffffffffffffffffffffffffffffffc360112610246576004359067ffffffffffffffff821161024657602073ffffffffffffffffffffffffffffffffffffffff81806115493660048801614473565b604051928184925191829101835e810160058152030190205416604051908152f35b503461024657807ffffffffffffffffffffffffffffffffffffffffffffffffffffffffffffffffc3601126102465760206040516801a055690d9db800008152f35b503461024657807ffffffffffffffffffffffffffffffffffffffffffffffffffffffffffffffffc360112610246573381526002602052600c60408220015415611662573381526002602052600e604082200160017fffffffffffffffffffffffffffffffffffffffffffffffffffffffffffffff00825416179055338152600260205242600d604083200155337f29815dc418e58b38455b8ba05ab07d37cfde9a916c8b6878ebeda3dafb0c63408280a280f35b807fb0853421000000000000000000000000000000000000000000000000000000006024925233600452fd5b503461024657807ffffffffffffffffffffffffffffffffffffffffffffffffffffffffffffffffc360112610246576020600754604051908152f35b50346102465760207ffffffffffffffffffffffffffffffffffffffffffffffffffffffffffffffffc36011261024657604073ffffffffffffffffffffffffffffffffffffffff918261171b61436a565b1681526006602052205416801561173757602090604051908152f35b6040517f08c379a000000000000000000000000000000000000000000000000000000000815260206004820152601360248201527f436f6d6d756e697479206e6f7420666f756e64000000000000000000000000006044820152606490fd5b50346102465760207ffffffffffffffffffffffffffffffffffffffffffffffffffffffffffffffffc360112610246576117ce61436a565b90806102006040516117df816143ae565b60608152606060208201526060604082015260608082015260606080820152606060a0820152606060c0820152606060e0820152826101008201526060610120820152826101408201528261016082015282610180820152826101a0820152826101c0820152826101e0820152015273ffffffffffffffffffffffffffffffffffffffff82168152600260205260408120916040519261187e846143ae565b61188781614543565b845261189560018201614543565b60208501526118a660028201614543565b60408501526118b760038201614543565b60608501526118c860048201614543565b60808501526118d960058201614543565b60a08501526118ea60068201614543565b60c08501526118fb60078201614543565b60e085015273ffffffffffffffffffffffffffffffffffffffff600882015416610100850152600981016040518082602082945493848152019087526020872092875b818110611ce4575050611953925003826143f8565b610120850152600a81015460ff81166002811015611cb7579073ffffffffffffffffffffffffffffffffffffffff9161014087015260081c1661016085015273ffffffffffffffffffffffffffffffffffffffff600b82015416610180850152600f600c82015491826101a0870152600d8101546101c087015260ff600e8201541615156101e0870152015461020085015215611c765782604051809160208252610200611bed611b95611b60611b2c611af8611ac4611a90611a5c611a288b61022060208d519201526102408d0190614601565b60208b01518c82037fffffffffffffffffffffffffffffffffffffffffffffffffffffffffffffffe00160408e0152614601565b60408a01517fffffffffffffffffffffffffffffffffffffffffffffffffffffffffffffffe08c83030160608d0152614601565b60608901517fffffffffffffffffffffffffffffffffffffffffffffffffffffffffffffffe08b83030160808c0152614601565b60808801517fffffffffffffffffffffffffffffffffffffffffffffffffffffffffffffffe08a83030160a08b0152614601565b60a08701517fffffffffffffffffffffffffffffffffffffffffffffffffffffffffffffffe08983030160c08a0152614601565b60c08601517fffffffffffffffffffffffffffffffffffffffffffffffffffffffffffffffe08883030160e0890152614601565b60e08501517fffffffffffffffffffffffffffffffffffffffffffffffffffffffffffffffe087830301610100880152614601565b73ffffffffffffffffffffffffffffffffffffffff610100850151166101208601526101208401517fffffffffffffffffffffffffffffffffffffffffffffffffffffffffffffffe086830301610140870152614651565b91611c02610140820151610160860190614644565b73ffffffffffffffffffffffffffffffffffffffff6101608201511661018085015273ffffffffffffffffffffffffffffffffffffffff610180820151166101a08501526101a08101516101c08501526101c08101516101e08501526101e081015115158285015201516102208301520390f35b7fb085342100000000000000000000000000000000000000000000000000000000825273ffffffffffffffffffffffffffffffffffffffff16600452602490fd5b6024857f4e487b710000000000000000000000000000000000000000000000000000000081526021600452fd5b845473ffffffffffffffffffffffffffffffffffffffff1683526001948501948694506020909301920161193e565b50346102465760207ffffffffffffffffffffffffffffffffffffffffffffffffffffffffffffffffc360112610246576004359067ffffffffffffffff82116102465773ffffffffffffffffffffffffffffffffffffffff602080611d7b3660048701614473565b604051928184925191829101835e810160058152030190205416801561173757602090604051908152f35b503461024657807ffffffffffffffffffffffffffffffffffffffffffffffffffffffffffffffffc360112610246573381526002602052600c60408220015415611662573381526002602052600e60408220017fffffffffffffffffffffffffffffffffffffffffffffffffffffffffffffff008154169055338152600260205242600d60408320015560405160208152601c60208201527f4d616e75616c20646561637469766174696f6e2062792061646d696e0000000060408201527f27de2b4ea759e3c0766b8a2a3f7e5667ef7621bcc8bbf3757b6bfa059f2de40160603392a280f35b50346102465760207ffffffffffffffffffffffffffffffffffffffffffffffffffffffffffffffffc360112610246576004359060075482101561024657602073ffffffffffffffffffffffffffffffffffffffff611eeb846148f7565b90549060031b1c16604051908152f35b5034612a7b5760407ffffffffffffffffffffffffffffffffffffffffffffffffffffffffffffffffc360112612a7b5760043567ffffffffffffffff8111612a7b57611f4b9036906004016146b2565b6024359060027f9b779b17422d0df92223018b32b4d1fa46e071723d6817e2486d003becc55f00541461366e5760027f9b779b17422d0df92223018b32b4d1fa46e071723d6817e2486d003becc55f0055335f526002602052600c60405f20015461364257805151156135e4576101408101805160028110156135b757613361576801a055690d9db800008310613328578373ffffffffffffffffffffffffffffffffffffffff7f000000000000000000000000000000000000000000000000000000000000000016803b156114dc5781809160a4604051809481937f1720af700000000000000000000000000000000000000000000000000000000083523360048401528a602484015260606044840152601f60648401527f526567697374727920636f6d6d756e69747920726567697374726174696f6e0060848401525af1801561331d57613304575b50505b6120a48251614b93565b60405173ffffffffffffffffffffffffffffffffffffffff825191602081818601948086835e8101600481520301902054166132c557602084019182518051908161324b575b50506101808501953387526101a086014281526101c087014281526101e088019060018252338b52600260205260408b2092895180519067ffffffffffffffff821161321e578d829161213d88546144f2565b601f81116131ee575b50602091601f84116001146131515792613146575b50507fffffffffffffffffffffffffffffffffffffffffffffffffffffffffffffffff8260011b9260031b1c19161784555b60018401885180519067ffffffffffffffff8211612c09578e82916121b285546144f2565b601f8111613116575b50602091601f8411600114613079579261306e575b50507fffffffffffffffffffffffffffffffffffffffffffffffffffffffffffffffff8260011b9260031b1c19161790555b6002840160408b015180519067ffffffffffffffff8211612c09578e829161222a85546144f2565b601f811161303e575b50602091601f8411600114612fa15792612f96575b50507fffffffffffffffffffffffffffffffffffffffffffffffffffffffffffffffff8260011b9260031b1c19161790555b6003840160608b015180519067ffffffffffffffff8211612c09578e82916122a285546144f2565b601f8111612f66575b50602091601f8411600114612ec95792612ebe575b50507fffffffffffffffffffffffffffffffffffffffffffffffffffffffffffffffff8260011b9260031b1c19161790555b6004840160808b015180519067ffffffffffffffff8211612c09578e829161231a85546144f2565b601f8111612e8e575b50602091601f8411600114612df15792612de6575b50507fffffffffffffffffffffffffffffffffffffffffffffffffffffffffffffffff8260011b9260031b1c19161790555b6005840160a08b015180519067ffffffffffffffff8211612c09578e829161239285546144f2565b601f8111612db6575b50602091601f8411600114612d195792612d0e575b50507fffffffffffffffffffffffffffffffffffffffffffffffffffffffffffffffff8260011b9260031b1c19161790555b6006840160c08b015180519067ffffffffffffffff8211612c09578e829161240a85546144f2565b601f8111612cde575b50602091601f8411600114612c415792612c36575b50507fffffffffffffffffffffffffffffffffffffffffffffffffffffffffffffffff8260011b9260031b1c19161790555b6007840160e08b015180519067ffffffffffffffff8211612c09578e829161248285546144f2565b601f8111612bd9575b50602091601f8411600114612b3c5792612b31575b50507fffffffffffffffffffffffffffffffffffffffffffffffffffffffffffffffff8260011b9260031b1c19161790555b73ffffffffffffffffffffffffffffffffffffffff6101008b01511673ffffffffffffffffffffffffffffffffffffffff6008860191167fffffffffffffffffffffffff0000000000000000000000000000000000000000825416179055600984019a6101208b019b8c519081519167ffffffffffffffff8311612b0357680100000000000000008311612b03578f906020908354858555808610612ae9575b500191815260208120905b838110612abf5750505050600a85018a516002811015612a92579161260e8273ffffffffffffffffffffffffffffffffffffffff8f610160906125c76126959b9a99988498614ab0565b015182547fffffffffffffffffffffff0000000000000000000000000000000000000000ff16911660081b74ffffffffffffffffffffffffffffffffffffffff0016179055565b511673ffffffffffffffffffffffffffffffffffffffff600b870191167fffffffffffffffffffffffff000000000000000000000000000000000000000082541617905551600c85015551600d840155511515600e83019060ff7fffffffffffffffffffffffffffffffffffffffffffffffffffffffffffffff0083541691151516179055565b610200870151600f919091015580156129ca575b6040519060a0820182811067ffffffffffffffff82111761299d57916127489160209493604052815260048a858301818152604084018281526060850191838352604060808701946001865233815260038b52209551865551600186015551600285015551600384015551151591019060ff7fffffffffffffffffffffffffffffffffffffffffffffffffffffffffffffff0083541691151516179055565b604051928391518091835e8101600481520301902073ffffffffffffffffffffffffffffffffffffffff33167fffffffffffffffffffffffff0000000000000000000000000000000000000000825416179055805180518061293f575b5050845b8451805182101561281e579073ffffffffffffffffffffffffffffffffffffffff6127d682600194614998565b5116806127e5575b50016127a9565b875260066020526040872080547fffffffffffffffffffffffff000000000000000000000000000000000000000016331790555f6127de565b50508492600754680100000000000000008110156129125780600161284692016007556148f7565b81549060031b9073ffffffffffffffffffffffffffffffffffffffff33831b921b1916179055519051915191600283101561096757907fe080e7602b4ed0db9385a97efa6bba0f706e9fc9a4f488687ccc5ce9ff6e13199133855260036020526128e06128d56040872054926128c760405195608087526080870190614601565b908582036020870152614601565b946040840190614644565b60608201528033930390a260017f9b779b17422d0df92223018b32b4d1fa46e071723d6817e2486d003becc55f005580f35b6024857f4e487b710000000000000000000000000000000000000000000000000000000081526041600452fd5b60209181839260405194859301835e8101600581520301902073ffffffffffffffffffffffffffffffffffffffff33167fffffffffffffffffffffffff00000000000000000000000000000000000000008254161790555f806127a5565b60248a7f4e487b710000000000000000000000000000000000000000000000000000000081526041600452fd5b506040517fdd2368c9000000000000000000000000000000000000000000000000000000008152336004820181905260248201526020816044817f000000000000000000000000000000000000000000000000000000000000000073ffffffffffffffffffffffffffffffffffffffff165afa908115612a87578891612a51575b506126a9565b90506020813d602011612a7f575b81612a6c602093836143f8565b81010312612a7b57515f612a4b565b5f80fd5b3d9150612a5f565b6040513d8a823e3d90fd5b60248f7f4e487b710000000000000000000000000000000000000000000000000000000081526021600452fd5b600190602073ffffffffffffffffffffffffffffffffffffffff855116940193818401550161257d565b848452828420612afd918101908701614a9a565b5f612572565b5060248f7f4e487b710000000000000000000000000000000000000000000000000000000081526041600452fd5b015190505f806124a0565b927fffffffffffffffffffffffffffffffffffffffffffffffffffffffffffffffe016858452828420935b818110612bc15750908460019594939210612b8a575b505050811b0190556124d2565b01517fffffffffffffffffffffffffffffffffffffffffffffffffffffffffffffffff60f88460031b161c191690555f8080612b7d565b92936020600181928786015181550195019301612b67565b612c039086845260208420601f860160051c81019160208710610ade57601f0160051c0190614a9a565b5f61248b565b60248f7f4e487b710000000000000000000000000000000000000000000000000000000081526041600452fd5b015190505f80612428565b927fffffffffffffffffffffffffffffffffffffffffffffffffffffffffffffffe016858452828420935b818110612cc65750908460019594939210612c8f575b505050811b01905561245a565b01517fffffffffffffffffffffffffffffffffffffffffffffffffffffffffffffffff60f88460031b161c191690555f8080612c82565b92936020600181928786015181550195019301612c6c565b612d089086845260208420601f860160051c81019160208710610ade57601f0160051c0190614a9a565b5f612413565b015190505f806123b0565b927fffffffffffffffffffffffffffffffffffffffffffffffffffffffffffffffe016858452828420935b818110612d9e5750908460019594939210612d67575b505050811b0190556123e2565b01517fffffffffffffffffffffffffffffffffffffffffffffffffffffffffffffffff60f88460031b161c191690555f8080612d5a565b92936020600181928786015181550195019301612d44565b612de09086845260208420601f860160051c81019160208710610ade57601f0160051c0190614a9a565b5f61239b565b015190505f80612338565b927fffffffffffffffffffffffffffffffffffffffffffffffffffffffffffffffe016858452828420935b818110612e765750908460019594939210612e3f575b505050811b01905561236a565b01517fffffffffffffffffffffffffffffffffffffffffffffffffffffffffffffffff60f88460031b161c191690555f8080612e32565b92936020600181928786015181550195019301612e1c565b612eb89086845260208420601f860160051c81019160208710610ade57601f0160051c0190614a9a565b5f612323565b015190505f806122c0565b927fffffffffffffffffffffffffffffffffffffffffffffffffffffffffffffffe016858452828420935b818110612f4e5750908460019594939210612f17575b505050811b0190556122f2565b01517fffffffffffffffffffffffffffffffffffffffffffffffffffffffffffffffff60f88460031b161c191690555f8080612f0a565b92936020600181928786015181550195019301612ef4565b612f909086845260208420601f860160051c81019160208710610ade57601f0160051c0190614a9a565b5f6122ab565b015190505f80612248565b927fffffffffffffffffffffffffffffffffffffffffffffffffffffffffffffffe016858452828420935b8181106130265750908460019594939210612fef575b505050811b01905561227a565b01517fffffffffffffffffffffffffffffffffffffffffffffffffffffffffffffffff60f88460031b161c191690555f8080612fe2565b92936020600181928786015181550195019301612fcc565b6130689086845260208420601f860160051c81019160208710610ade57601f0160051c0190614a9a565b5f612233565b015190505f806121d0565b927fffffffffffffffffffffffffffffffffffffffffffffffffffffffffffffffe016858452828420935b8181106130fe57509084600195949392106130c7575b505050811b019055612202565b01517fffffffffffffffffffffffffffffffffffffffffffffffffffffffffffffffff60f88460031b161c191690555f80806130ba565b929360206001819287860151815501950193016130a4565b6131409086845260208420601f860160051c81019160208710610ade57601f0160051c0190614a9a565b5f6121bb565b015190505f8061215b565b927fffffffffffffffffffffffffffffffffffffffffffffffffffffffffffffffe016888452828420935b8181106131d6575090846001959493921061319f575b505050811b01845561218d565b01517fffffffffffffffffffffffffffffffffffffffffffffffffffffffffffffffff60f88460031b161c191690555f8080613192565b9293602060018192878601518155019501930161317c565b6132189089845260208420601f860160051c81019160208710610ade57601f0160051c0190614a9a565b5f612146565b60248e7f4e487b710000000000000000000000000000000000000000000000000000000081526041600452fd5b602080918373ffffffffffffffffffffffffffffffffffffffff9460405194859301835e810160058152030190205416613286575f806120ea565b61130283516040519182917f3ba0ec9a000000000000000000000000000000000000000000000000000000008352602060048401526024830190614601565b61130284516040519182917fc8b1ffca000000000000000000000000000000000000000000000000000000008352602060048401526024830190614601565b8161330e916143f8565b61331957835f612097565b8380fd5b6040513d84823e3d90fd5b604484847f45be0a260000000000000000000000000000000000000000000000000000000082526004526801a055690d9db80000602452fd5b82156134b6576802b5e3af16b1880000831061347d5773ffffffffffffffffffffffffffffffffffffffff7f000000000000000000000000000000000000000000000000000000000000000016803b15612a7b575f809160c4604051809481937f1720af7000000000000000000000000000000000000000000000000000000000835233600484015289602484015260606044840152602c60648401527f526567697374727920636f6d6d756e69747920726567697374726174696f6e2060848401527f285375706572206d6f646529000000000000000000000000000000000000000060a48401525af180156134725761345d575b5061209a565b61346a9194505f906143f8565b5f925f613457565b6040513d5f823e3d90fd5b827f45be0a26000000000000000000000000000000000000000000000000000000005f526004526802b5e3af16b188000060245260445ffd5b6040517fdd2368c9000000000000000000000000000000000000000000000000000000008152336004820181905260248201526020816044817f000000000000000000000000000000000000000000000000000000000000000073ffffffffffffffffffffffffffffffffffffffff165afa908115613472575f91613585575b506802b5e3af16b1880000811061354d575061209a565b7f45be0a26000000000000000000000000000000000000000000000000000000005f526004526802b5e3af16b188000060245260445ffd5b90506020813d6020116135af575b816135a0602093836143f8565b81010312612a7b57515f613536565b3d9150613593565b7f4e487b71000000000000000000000000000000000000000000000000000000005f52602160045260245ffd5b60646040517f08c379a000000000000000000000000000000000000000000000000000000000815260206004820152601460248201527f4e616d652063616e6e6f7420626520656d7074790000000000000000000000006044820152fd5b7f16e425cc000000000000000000000000000000000000000000000000000000005f523360045260245ffd5b7f3ee5aeb5000000000000000000000000000000000000000000000000000000005f5260045ffd5b6144b9565b34612a7b5760407ffffffffffffffffffffffffffffffffffffffffffffffffffffffffffffffffc360112612a7b576136ef6136db6024356004356149ac565b604051918291602083526020830190614651565b0390f35b34612a7b5760207ffffffffffffffffffffffffffffffffffffffffffffffffffffffffffffffffc360112612a7b5773ffffffffffffffffffffffffffffffffffffffff61373f61436a565b165f52600360205260a060405f20805490600181015490600281015460ff60046003840154930154169260405194855260208501526040840152606083015215156080820152f35b34612a7b575f7ffffffffffffffffffffffffffffffffffffffffffffffffffffffffffffffffc360112612a7b57602073ffffffffffffffffffffffffffffffffffffffff5f5416604051908152f35b34612a7b575f7ffffffffffffffffffffffffffffffffffffffffffffffffffffffffffffffffc360112612a7b57602060405173ffffffffffffffffffffffffffffffffffffffff7f0000000000000000000000000000000000000000000000000000000000000000168152f35b34612a7b5760207ffffffffffffffffffffffffffffffffffffffffffffffffffffffffffffffffc360112612a7b5761387c61436a565b73ffffffffffffffffffffffffffffffffffffffff165f52600260205260405f206138a681614543565b906138b360018201614543565b906138c060028201614543565b6138cc60038301614543565b916138d960048201614543565b926138e660058301614543565b936138f360068401614543565b9461390060078501614543565b95600885015473ffffffffffffffffffffffffffffffffffffffff1696600a86015491600b87015473ffffffffffffffffffffffffffffffffffffffff1693600c88015495600d89015497600e8a015460ff1699600f01549a6040519e8f9e8f916102008352610200830161397491614601565b828103602084015261398591614601565b90808203906040015261399791614601565b8d810360608f01526139a891614601565b8c810360808e01526139b991614601565b8b810360a08d01526139ca91614601565b8a810360c08c01526139db91614601565b89810360e08b01526139ec91614601565b96610100890152610120880160ff821690613a0691614644565b60081c73ffffffffffffffffffffffffffffffffffffffff166101408801526101608701526101808601526101a085015215156101c08401526101e08301520390f35b34612a7b575f7ffffffffffffffffffffffffffffffffffffffffffffffffffffffffffffffffc360112612a7b57602073ffffffffffffffffffffffffffffffffffffffff60015416604051908152f35b34612a7b5760207ffffffffffffffffffffffffffffffffffffffffffffffffffffffffffffffffc360112612a7b5773ffffffffffffffffffffffffffffffffffffffff613ae661436a565b613aee614ae7565b168015613b5c5773ffffffffffffffffffffffffffffffffffffffff600154827fffffffffffffffffffffffff0000000000000000000000000000000000000000821617600155167f078c3b417dadf69374a59793b829c52001247130433427049317bde56607b1b75f80a3005b7f8e4c8aa6000000000000000000000000000000000000000000000000000000005f5260045260245ffd5b34612a7b575f7ffffffffffffffffffffffffffffffffffffffffffffffffffffffffffffffffc360112612a7b57613bbd614ae7565b5f73ffffffffffffffffffffffffffffffffffffffff81547fffffffffffffffffffffffff000000000000000000000000000000000000000081168355167f8be0079c531659141344cd1fd0a4f28419497f9722a3daafe3b4186f6b6457e08280a3005b34612a7b5760207ffffffffffffffffffffffffffffffffffffffffffffffffffffffffffffffffc360112612a7b57604073ffffffffffffffffffffffffffffffffffffffff613c6f61436a565b16805f526002602052600c825f2001541515905f52600260205260ff600e835f20015416825191825215156020820152f35b34612a7b5760207ffffffffffffffffffffffffffffffffffffffffffffffffffffffffffffffffc360112612a7b5760043567ffffffffffffffff8111612a7b57602080613d0b61135073ffffffffffffffffffffffffffffffffffffffff943690600401614473565b604051928184925191829101835e810160048152030190205416801561173757602090604051908152f35b34612a7b5760207ffffffffffffffffffffffffffffffffffffffffffffffffffffffffffffffffc360112612a7b5773ffffffffffffffffffffffffffffffffffffffff613d8261436a565b613d8a614ae7565b16805f5260036020525f60016040822001557fc305edfe3dc976f828ebe492bd418c2002e7e7ff6cba29e2fcddf3d0d79ea1626020604051428152a2005b34612a7b575f7ffffffffffffffffffffffffffffffffffffffffffffffffffffffffffffffffc360112612a7b5760206040516802b5e3af16b18800008152f35b34612a7b5760207ffffffffffffffffffffffffffffffffffffffffffffffffffffffffffffffffc360112612a7b5760043567ffffffffffffffff8111612a7b5773ffffffffffffffffffffffffffffffffffffffff602080613e7181943690600401614473565b604051928184925191829101835e810160048152030190205416604051908152f35b34612a7b5760207ffffffffffffffffffffffffffffffffffffffffffffffffffffffffffffffffc360112612a7b5773ffffffffffffffffffffffffffffffffffffffff613edf61436a565b165f526006602052602073ffffffffffffffffffffffffffffffffffffffff60405f205416604051908152f35b34612a7b5760207ffffffffffffffffffffffffffffffffffffffffffffffffffffffffffffffffc360112612a7b57613f4361436a565b73ffffffffffffffffffffffffffffffffffffffff6001541633141580614349575b61431d5773ffffffffffffffffffffffffffffffffffffffff16805f52600360205260405f2060ff600482015416156142f157806001600a920190613faa8254614951565b809255600242910155827f78d64c8b30423b1f4f409f06f21eee1bf33348f73ca26d768af9e83da1b574a360408051848152426020820152a21015613feb57005b805f52600360205260405f208054600a810290808204600a14901517156142c45760209081606460018501926140b2601560306140288754614cf7565b6040519889917f526567697374727920736c6173683a2000000000000000000000000000000000828401528051918291018484015e81017f20636f6e7365637574697665206661696c7572657300000000000000000000008382015203017ffffffffffffffffffffffffffffffffffffffffffffffffffffffffffffffff58101885201866143f8565b6140fd60405195869384937f678b3ee20000000000000000000000000000000000000000000000000000000085528a6004860152046024840152606060448401526064830190614601565b03815f73ffffffffffffffffffffffffffffffffffffffff7f0000000000000000000000000000000000000000000000000000000000000000165af1918215613472575f92614270575b50908267d02ab486cedc00006060935f614183857f67d700388815ac4c4c56957a5983f604c3e1f55de155970f5c03a69d60a5c50c985461498b565b918285556003850161419687825461497e565b905555106141b4575b546040519182526020820152426040820152a2005b600481017fffffffffffffffffffffffffffffffffffffffffffffffffffffffffffffff008154169055845f526002602052600e60405f20017fffffffffffffffffffffffffffffffffffffffffffffffffffffffffffffff008154169055847f27de2b4ea759e3c0766b8a2a3f7e5667ef7621bcc8bbf3757b6bfa059f2de4018460405160208152601e60208201527f496e73756666696369656e74207374616b6520616674657220736c61736800006040820152a261419f565b91506020823d6020116142bc575b8161428b602093836143f8565b81010312612a7b579051907f67d700388815ac4c4c56957a5983f604c3e1f55de155970f5c03a69d60a5c50c614147565b3d915061427e565b7f4e487b71000000000000000000000000000000000000000000000000000000005f52601160045260245ffd5b507fc2df1082000000000000000000000000000000000000000000000000000000005f5260045260245ffd5b7f91e47843000000000000000000000000000000000000000000000000000000005f523360045260245ffd5b5073ffffffffffffffffffffffffffffffffffffffff5f5416331415613f65565b6004359073ffffffffffffffffffffffffffffffffffffffff82168203612a7b57565b359073ffffffffffffffffffffffffffffffffffffffff82168203612a7b57565b610220810190811067ffffffffffffffff8211176143cb57604052565b7f4e487b71000000000000000000000000000000000000000000000000000000005f52604160045260245ffd5b90601f7fffffffffffffffffffffffffffffffffffffffffffffffffffffffffffffffe0910116810190811067ffffffffffffffff8211176143cb57604052565b67ffffffffffffffff81116143cb57601f017fffffffffffffffffffffffffffffffffffffffffffffffffffffffffffffffe01660200190565b81601f82011215612a7b5780359061448a82614439565b9261449860405194856143f8565b82845260208383010111612a7b57815f926020809301838601378301015290565b34612a7b575f7ffffffffffffffffffffffffffffffffffffffffffffffffffffffffffffffffc360112612a7b576020604051600a8152f35b90600182811c92168015614539575b602083101461450c57565b7f4e487b71000000000000000000000000000000000000000000000000000000005f52602260045260245ffd5b91607f1691614501565b9060405191825f825492614556846144f2565b80845293600181169081156145c1575060011461457d575b5061457b925003836143f8565b565b90505f9291925260205f20905f915b8183106145a557505090602061457b928201015f61456e565b602091935080600191548385890101520191019091849261458c565b6020935061457b9592507fffffffffffffffffffffffffffffffffffffffffffffffffffffffffffffff0091501682840152151560051b8201015f61456e565b907fffffffffffffffffffffffffffffffffffffffffffffffffffffffffffffffe0601f602080948051918291828752018686015e5f8582860101520116010190565b9060028210156135b75752565b90602080835192838152019201905f5b81811061466e5750505090565b825173ffffffffffffffffffffffffffffffffffffffff16845260209384019390920191600101614661565b67ffffffffffffffff81116143cb5760051b60200190565b91909161022081840312612a7b57604051906146cd826143ae565b8193813567ffffffffffffffff8111612a7b57816146ec918401614473565b8352602082013567ffffffffffffffff8111612a7b578161470e918401614473565b6020840152604082013567ffffffffffffffff8111612a7b5781614733918401614473565b6040840152606082013567ffffffffffffffff8111612a7b5781614758918401614473565b6060840152608082013567ffffffffffffffff8111612a7b578161477d918401614473565b608084015260a082013567ffffffffffffffff8111612a7b57816147a2918401614473565b60a084015260c082013567ffffffffffffffff8111612a7b57816147c7918401614473565b60c084015260e082013567ffffffffffffffff8111612a7b57816147ec918401614473565b60e08401526147fe610100830161438d565b61010084015261012082013567ffffffffffffffff8111612a7b5782019080601f83011215612a7b5781356148328161469a565b9261484060405194856143f8565b81845260208085019260051b820101928311612a7b57602001905b8282106148df575050506101208301526101408101356002811015612a7b5761014083015261488d610160820161438d565b6101608301526148a0610180820161438d565b6101808301526101a08101356101a08301526101c08101356101c08301526101e08101358015158103612a7b576101e083015261020090810135910152565b602080916148ec8461438d565b81520191019061485b565b60075481101561490f5760075f5260205f2001905f90565b7f4e487b71000000000000000000000000000000000000000000000000000000005f52603260045260245ffd5b805482101561490f575f5260205f2001905f90565b7fffffffffffffffffffffffffffffffffffffffffffffffffffffffffffffffff81146142c45760010190565b919082018092116142c457565b919082039182116142c457565b805182101561490f5760209160051b010190565b91906007549081841015614a7e576149d8916149c985928361497e565b90808211614a76575b5061498b565b6149e18161469a565b906149ef60405192836143f8565b8082527fffffffffffffffffffffffffffffffffffffffffffffffffffffffffffffffe0614a1c8261469a565b013660208401375f5b818110614a33575090925050565b8073ffffffffffffffffffffffffffffffffffffffff614a5d614a586001948961497e565b6148f7565b90549060031b1c16614a6f8286614998565b5201614a25565b90505f6149d2565b50509050604051614a906020826143f8565b5f81525f36813790565b818110614aa5575050565b5f8155600101614a9a565b9060028110156135b75760ff7fffffffffffffffffffffffffffffffffffffffffffffffffffffffffffffff008354169116179055565b73ffffffffffffffffffffffffffffffffffffffff5f54163303614b0757565b7f118cdaa7000000000000000000000000000000000000000000000000000000005f523360045260245ffd5b90614b3d82614439565b614b4a60405191826143f8565b8281527fffffffffffffffffffffffffffffffffffffffffffffffffffffffffffffffe0614b788294614439565b0190602036910137565b90815181101561490f570160200190565b90614b9e8251614b33565b915f5b8151811015614cf3577f41000000000000000000000000000000000000000000000000000000000000007fff00000000000000000000000000000000000000000000000000000000000000614bf68385614b82565b5116101580614c9d575b15614c5b576020614c118284614b82565b5160f81c019060ff82116142c4577fff0000000000000000000000000000000000000000000000000000000000000060019260f81b165f1a614c538287614b82565b535b01614ba1565b807fff00000000000000000000000000000000000000000000000000000000000000614c8960019385614b82565b51165f1a614c978287614b82565b53614c55565b507f5a000000000000000000000000000000000000000000000000000000000000007fff00000000000000000000000000000000000000000000000000000000000000614cea8385614b82565b51161115614c00565b5050565b8015614dac57805f81805b614d945750614d1081614b33565b925b614d1b57505090565b7fffffffffffffffffffffffffffffffffffffffffffffffffffffffffffffffff81019081116142c4578091600a810660300191826030116142c457614d8b7fff00000000000000000000000000000000000000000000000000000000000000600a9460f81b165f1a9186614b82565b53049081614d12565b9150614da1600a91614951565b910480839291614d02565b50604051614dbb6040826143f8565b600181527f300000000000000000000000000000000000000000000000000000000000000060208201529056fea26469706673582212204dca9d6fa36f9e0db074cd84ff47a2740145982a3c20066942aeaa37829dadf764736f6c634300081c0033","linkReferences":{}},"methodIdentifiers":{"GTOKEN_STAKING()":"826600ce","MIN_STAKE_AOA()":"e6c52070","MIN_STAKE_SUPER()":"51fe6ed2","SLASH_PERCENTAGE()":"9f29f135","SLASH_THRESHOLD()":"4ca3e71d","communities(address)":"7f2813d2","communityByENS(string)":"e7b89138","communityByName(string)":"410087ad","communityBySBT(address)":"261057a4","communityList(uint256)":"a681b7ba","communityStakes(address)":"96fdbb13","deactivateCommunity()":"acab9a5d","getCommunities(uint256,uint256)":"9a4cabf9","getCommunityByENS(string)":"b1988995","getCommunityByName(string)":"64c39a43","getCommunityBySBT(address)":"b830e882","getCommunityCount()":"c122b3cb","getCommunityProfile(address)":"b5222057","getCommunityStatus(address)":"687e708f","oracle()":"7dc0d1d0","owner()":"8da5cb5b","reactivateCommunity()":"c82f3150","registerCommunity((string,string,string,string,string,string,string,string,address,address[],uint8,address,address,uint256,uint256,bool,uint256),uint256)":"a14d9789","renounceOwnership()":"715018a6","reportFailure(address)":"209d7c30","resetFailureCount(address)":"528282c4","setOracle(address)":"7adbf973","transferOwnership(address)":"f2fde38b","updateCommunityProfile((string,string,string,string,string,string,string,string,address,address[],uint8,address,address,uint256,uint256,bool,uint256))":"ecd15c42"},"id":215}