{"abi":[{"type":"constructor","inputs":[{"name":"_gtokenStaking","type":"address","internalType":"address"},{"name":"_registry","type":"address","internalType":"address"}],"stateMutability":"nonpayable"},{"type":"function","name":"DVT_AGGREGATOR","inputs":[],"outputs":[{"name":"","type":"address","internalType":"address"}],"stateMutability":"view"},{"type":"function","name":"ENTRY_POINT","inputs":[],"outputs":[{"name":"","type":"address","internalType":"address"}],"stateMutability":"view"},{"type":"function","name":"GTOKEN_STAKING","inputs":[],"outputs":[{"name":"","type":"address","internalType":"address"}],"stateMutability":"view"},{"type":"function","name":"REGISTRY","inputs":[],"outputs":[{"name":"","type":"address","internalType":"address"}],"stateMutability":"view"},{"type":"function","name":"REPUTATION_LEVELS","inputs":[{"name":"","type":"uint256","internalType":"uint256"}],"outputs":[{"name":"","type":"uint256","internalType":"uint256"}],"stateMutability":"view"},{"type":"function","name":"aPNTsPriceUSD","inputs":[],"outputs":[{"name":"","type":"uint256","internalType":"uint256"}],"stateMutability":"view"},{"type":"function","name":"aPNTsToken","inputs":[],"outputs":[{"name":"","type":"address","internalType":"address"}],"stateMutability":"view"},{"type":"function","name":"accounts","inputs":[{"name":"","type":"address","internalType":"address"}],"outputs":[{"name":"stGTokenLocked","type":"uint256","internalType":"uint256"},{"name":"stakedAt","type":"uint256","internalType":"uint256"},{"name":"aPNTsBalance","type":"uint256","internalType":"uint256"},{"name":"totalSpent","type":"uint256","internalType":"uint256"},{"name":"lastRefillTime","type":"uint256","internalType":"uint256"},{"name":"minBalanceThreshold","type":"uint256","internalType":"uint256"},{"name":"xPNTsToken","type":"address","internalType":"address"},{"name":"treasury","type":"address","internalType":"address"},{"name":"exchangeRate","type":"uint256","internalType":"uint256"},{"name":"reputationScore","type":"uint256","internalType":"uint256"},{"name":"consecutiveDays","type":"uint256","internalType":"uint256"},{"name":"totalTxSponsored","type":"uint256","internalType":"uint256"},{"name":"reputationLevel","type":"uint256","internalType":"uint256"},{"name":"lastCheckTime","type":"uint256","internalType":"uint256"},{"name":"isPaused","type":"bool","internalType":"bool"}],"stateMutability":"view"},{"type":"function","name":"depositAPNTs","inputs":[{"name":"amount","type":"uint256","internalType":"uint256"}],"outputs":[],"stateMutability":"nonpayable"},{"type":"function","name":"executeSlashWithBLS","inputs":[{"name":"operator","type":"address","internalType":"address"},{"name":"level","type":"uint8","internalType":"enum SuperPaymasterV2.SlashLevel"},{"name":"proof","type":"bytes","internalType":"bytes"}],"outputs":[],"stateMutability":"nonpayable"},{"type":"function","name":"gasToUSDRate","inputs":[],"outputs":[{"name":"","type":"uint256","internalType":"uint256"}],"stateMutability":"view"},{"type":"function","name":"getOperatorAccount","inputs":[{"name":"operator","type":"address","internalType":"address"}],"outputs":[{"name":"account","type":"tuple","internalType":"struct SuperPaymasterV2.OperatorAccount","components":[{"name":"stGTokenLocked","type":"uint256","internalType":"uint256"},{"name":"stakedAt","type":"uint256","internalType":"uint256"},{"name":"aPNTsBalance","type":"uint256","internalType":"uint256"},{"name":"totalSpent","type":"uint256","internalType":"uint256"},{"name":"lastRefillTime","type":"uint256","internalType":"uint256"},{"name":"minBalanceThreshold","type":"uint256","internalType":"uint256"},{"name":"supportedSBTs","type":"address[]","internalType":"address[]"},{"name":"xPNTsToken","type":"address","internalType":"address"},{"name":"treasury","type":"address","internalType":"address"},{"name":"exchangeRate","type":"uint256","internalType":"uint256"},{"name":"reputationScore","type":"uint256","internalType":"uint256"},{"name":"consecutiveDays","type":"uint256","internalType":"uint256"},{"name":"totalTxSponsored","type":"uint256","internalType":"uint256"},{"name":"reputationLevel","type":"uint256","internalType":"uint256"},{"name":"lastCheckTime","type":"uint256","internalType":"uint256"},{"name":"isPaused","type":"bool","internalType":"bool"}]}],"stateMutability":"view"},{"type":"function","name":"getSlashHistory","inputs":[{"name":"operator","type":"address","internalType":"address"}],"outputs":[{"name":"history","type":"tuple[]","internalType":"struct SuperPaymasterV2.SlashRecord[]","components":[{"name":"timestamp","type":"uint256","internalType":"uint256"},{"name":"amount","type":"uint256","internalType":"uint256"},{"name":"reputationLoss","type":"uint256","internalType":"uint256"},{"name":"reason","type":"string","internalType":"string"},{"name":"level","type":"uint8","internalType":"enum SuperPaymasterV2.SlashLevel"}]}],"stateMutability":"view"},{"type":"function","name":"isEligibleForUpgrade","inputs":[{"name":"operator","type":"address","internalType":"address"}],"outputs":[{"name":"eligible","type":"bool","internalType":"bool"}],"stateMutability":"view"},{"type":"function","name":"minAPNTsBalance","inputs":[],"outputs":[{"name":"","type":"uint256","internalType":"uint256"}],"stateMutability":"view"},{"type":"function","name":"minOperatorStake","inputs":[],"outputs":[{"name":"","type":"uint256","internalType":"uint256"}],"stateMutability":"view"},{"type":"function","name":"owner","inputs":[],"outputs":[{"name":"","type":"address","internalType":"address"}],"stateMutability":"view"},{"type":"function","name":"postOp","inputs":[{"name":"mode","type":"uint8","internalType":"enum IPaymaster.PostOpMode"},{"name":"context","type":"bytes","internalType":"bytes"},{"name":"actualGasCost","type":"uint256","internalType":"uint256"},{"name":"actualUserOpFeePerGas","type":"uint256","internalType":"uint256"}],"outputs":[],"stateMutability":"nonpayable"},{"type":"function","name":"registerOperator","inputs":[{"name":"stGTokenAmount","type":"uint256","internalType":"uint256"},{"name":"supportedSBTs","type":"address[]","internalType":"address[]"},{"name":"xPNTsToken","type":"address","internalType":"address"},{"name":"treasury","type":"address","internalType":"address"}],"outputs":[],"stateMutability":"nonpayable"},{"type":"function","name":"renounceOwnership","inputs":[],"outputs":[],"stateMutability":"nonpayable"},{"type":"function","name":"serviceFeeRate","inputs":[],"outputs":[{"name":"","type":"uint256","internalType":"uint256"}],"stateMutability":"view"},{"type":"function","name":"setAPNTsToken","inputs":[{"name":"newAPNTsToken","type":"address","internalType":"address"}],"outputs":[],"stateMutability":"nonpayable"},{"type":"function","name":"setDVTAggregator","inputs":[{"name":"_dvtAggregator","type":"address","internalType":"address"}],"outputs":[],"stateMutability":"nonpayable"},{"type":"function","name":"setEntryPoint","inputs":[{"name":"_entryPoint","type":"address","internalType":"address"}],"outputs":[],"stateMutability":"nonpayable"},{"type":"function","name":"setMinAPNTsBalance","inputs":[{"name":"newBalance","type":"uint256","internalType":"uint256"}],"outputs":[],"stateMutability":"nonpayable"},{"type":"function","name":"setMinOperatorStake","inputs":[{"name":"newStake","type":"uint256","internalType":"uint256"}],"outputs":[],"stateMutability":"nonpayable"},{"type":"function","name":"setSuperPaymasterTreasury","inputs":[{"name":"newTreasury","type":"address","internalType":"address"}],"outputs":[],"stateMutability":"nonpayable"},{"type":"function","name":"slashHistory","inputs":[{"name":"","type":"address","internalType":"address"},{"name":"","type":"uint256","internalType":"uint256"}],"outputs":[{"name":"timestamp","type":"uint256","internalType":"uint256"},{"name":"amount","type":"uint256","internalType":"uint256"},{"name":"reputationLoss","type":"uint256","internalType":"uint256"},{"name":"reason","type":"string","internalType":"string"},{"name":"level","type":"uint8","internalType":"enum SuperPaymasterV2.SlashLevel"}],"stateMutability":"view"},{"type":"function","name":"superPaymasterTreasury","inputs":[],"outputs":[{"name":"","type":"address","internalType":"address"}],"stateMutability":"view"},{"type":"function","name":"transferOwnership","inputs":[{"name":"newOwner","type":"address","internalType":"address"}],"outputs":[],"stateMutability":"nonpayable"},{"type":"function","name":"treasuryAPNTsBalance","inputs":[],"outputs":[{"name":"","type":"uint256","internalType":"uint256"}],"stateMutability":"view"},{"type":"function","name":"unpauseOperator","inputs":[{"name":"operator","type":"address","internalType":"address"}],"outputs":[],"stateMutability":"nonpayable"},{"type":"function","name":"updateExchangeRate","inputs":[{"name":"newRate","type":"uint256","internalType":"uint256"}],"outputs":[],"stateMutability":"nonpayable"},{"type":"function","name":"updateTreasury","inputs":[{"name":"newTreasury","type":"address","internalType":"address"}],"outputs":[],"stateMutability":"nonpayable"},{"type":"function","name":"validatePaymasterUserOp","inputs":[{"name":"userOp","type":"tuple","internalType":"struct PackedUserOperation","components":[{"name":"sender","type":"address","internalType":"address"},{"name":"nonce","type":"uint256","internalType":"uint256"},{"name":"initCode","type":"bytes","internalType":"bytes"},{"name":"callData","type":"bytes","internalType":"bytes"},{"name":"accountGasLimits","type":"bytes32","internalType":"bytes32"},{"name":"preVerificationGas","type":"uint256","internalType":"uint256"},{"name":"gasFees","type":"bytes32","internalType":"bytes32"},{"name":"paymasterAndData","type":"bytes","internalType":"bytes"},{"name":"signature","type":"bytes","internalType":"bytes"}]},{"name":"userOpHash","type":"bytes32","internalType":"bytes32"},{"name":"maxCost","type":"uint256","internalType":"uint256"}],"outputs":[{"name":"context","type":"bytes","internalType":"bytes"},{"name":"validationData","type":"uint256","internalType":"uint256"}],"stateMutability":"nonpayable"},{"type":"function","name":"withdrawTreasury","inputs":[{"name":"amount","type":"uint256","internalType":"uint256"}],"outputs":[],"stateMutability":"nonpayable"},{"type":"event","name":"APNTsTokenUpdated","inputs":[{"name":"oldToken","type":"address","indexed":true,"internalType":"address"},{"name":"newToken","type":"address","indexed":true,"internalType":"address"}],"anonymous":false},{"type":"event","name":"DVTAggregatorUpdated","inputs":[{"name":"oldAddress","type":"address","indexed":true,"internalType":"address"},{"name":"newAddress","type":"address","indexed":true,"internalType":"address"}],"anonymous":false},{"type":"event","name":"ExchangeRateUpdated","inputs":[{"name":"operator","type":"address","indexed":true,"internalType":"address"},{"name":"newRate","type":"uint256","indexed":false,"internalType":"uint256"}],"anonymous":false},{"type":"event","name":"MinAPNTsBalanceUpdated","inputs":[{"name":"oldBalance","type":"uint256","indexed":false,"internalType":"uint256"},{"name":"newBalance","type":"uint256","indexed":false,"internalType":"uint256"}],"anonymous":false},{"type":"event","name":"MinOperatorStakeUpdated","inputs":[{"name":"oldStake","type":"uint256","indexed":false,"internalType":"uint256"},{"name":"newStake","type":"uint256","indexed":false,"internalType":"uint256"}],"anonymous":false},{"type":"event","name":"OperatorPaused","inputs":[{"name":"operator","type":"address","indexed":true,"internalType":"address"},{"name":"timestamp","type":"uint256","indexed":false,"internalType":"uint256"}],"anonymous":false},{"type":"event","name":"OperatorRegistered","inputs":[{"name":"operator","type":"address","indexed":true,"internalType":"address"},{"name":"stakedAmount","type":"uint256","indexed":false,"internalType":"uint256"},{"name":"timestamp","type":"uint256","indexed":false,"internalType":"uint256"}],"anonymous":false},{"type":"event","name":"OperatorSlashed","inputs":[{"name":"operator","type":"address","indexed":true,"internalType":"address"},{"name":"amount","type":"uint256","indexed":false,"internalType":"uint256"},{"name":"level","type":"uint8","indexed":false,"internalType":"enum SuperPaymasterV2.SlashLevel"},{"name":"timestamp","type":"uint256","indexed":false,"internalType":"uint256"}],"anonymous":false},{"type":"event","name":"OperatorUnpaused","inputs":[{"name":"operator","type":"address","indexed":true,"internalType":"address"},{"name":"timestamp","type":"uint256","indexed":false,"internalType":"uint256"}],"anonymous":false},{"type":"event","name":"OwnershipTransferred","inputs":[{"name":"previousOwner","type":"address","indexed":true,"internalType":"address"},{"name":"newOwner","type":"address","indexed":true,"internalType":"address"}],"anonymous":false},{"type":"event","name":"ReputationUpdated","inputs":[{"name":"operator","type":"address","indexed":true,"internalType":"address"},{"name":"newScore","type":"uint256","indexed":false,"internalType":"uint256"},{"name":"newLevel","type":"uint256","indexed":false,"internalType":"uint256"}],"anonymous":false},{"type":"event","name":"SuperPaymasterTreasuryUpdated","inputs":[{"name":"oldTreasury","type":"address","indexed":true,"internalType":"address"},{"name":"newTreasury","type":"address","indexed":true,"internalType":"address"}],"anonymous":false},{"type":"event","name":"TransactionSponsored","inputs":[{"name":"operator","type":"address","indexed":true,"internalType":"address"},{"name":"user","type":"address","indexed":true,"internalType":"address"},{"name":"aPNTsCost","type":"uint256","indexed":false,"internalType":"uint256"},{"name":"xPNTsCost","type":"uint256","indexed":false,"internalType":"uint256"},{"name":"timestamp","type":"uint256","indexed":false,"internalType":"uint256"}],"anonymous":false},{"type":"event","name":"TreasuryUpdated","inputs":[{"name":"operator","type":"address","indexed":true,"internalType":"address"},{"name":"newTreasury","type":"address","indexed":true,"internalType":"address"}],"anonymous":false},{"type":"event","name":"TreasuryWithdrawal","inputs":[{"name":"treasury","type":"address","indexed":true,"internalType":"address"},{"name":"amount","type":"uint256","indexed":false,"internalType":"uint256"},{"name":"timestamp","type":"uint256","indexed":false,"internalType":"uint256"}],"anonymous":false},{"type":"event","name":"aPNTsDeposited","inputs":[{"name":"operator","type":"address","indexed":true,"internalType":"address"},{"name":"amount","type":"uint256","indexed":false,"internalType":"uint256"},{"name":"timestamp","type":"uint256","indexed":false,"internalType":"uint256"}],"anonymous":false},{"type":"error","name":"AlreadyRegistered","inputs":[{"name":"operator","type":"address","internalType":"address"}]},{"type":"error","name":"InsufficientAPNTs","inputs":[{"name":"required","type":"uint256","internalType":"uint256"},{"name":"available","type":"uint256","internalType":"uint256"}]},{"type":"error","name":"InsufficientStake","inputs":[{"name":"provided","type":"uint256","internalType":"uint256"},{"name":"required","type":"uint256","internalType":"uint256"}]},{"type":"error","name":"InvalidAddress","inputs":[{"name":"addr","type":"address","internalType":"address"}]},{"type":"error","name":"InvalidAmount","inputs":[{"name":"amount","type":"uint256","internalType":"uint256"}]},{"type":"error","name":"InvalidConfiguration","inputs":[]},{"type":"error","name":"NoSBTFound","inputs":[{"name":"user","type":"address","internalType":"address"}]},{"type":"error","name":"NotRegistered","inputs":[{"name":"operator","type":"address","internalType":"address"}]},{"type":"error","name":"OperatorIsPaused","inputs":[{"name":"operator","type":"address","internalType":"address"}]},{"type":"error","name":"OwnableInvalidOwner","inputs":[{"name":"owner","type":"address","internalType":"address"}]},{"type":"error","name":"OwnableUnauthorizedAccount","inputs":[{"name":"account","type":"address","internalType":"address"}]},{"type":"error","name":"ReentrancyGuardReentrantCall","inputs":[]},{"type":"error","name":"UnauthorizedCaller","inputs":[{"name":"caller","type":"address","internalType":"address"}]}],"bytecode":{"object":"0x60c06040523461029b57604051601f61362038819003918201601f19168301916001600160401b0383118484101761027457808492604094855283398101031261029b5761005860206100518361029f565b920161029f565b903315610288575f8054336001600160a01b0319821681178355916001600160a01b03909116907f8be0079c531659141344cd1fd0a4f28419497f9722a3daafe3b4186f6b6457e09080a360017f9b779b17422d0df92223018b32b4d1fa46e071723d6817e2486d003becc55f00556801a055690d9db8000060055568056bc75e2d6310000060065566470de4df82000060075568a2a15d09519be0000060085560c860095560405161018081016001600160401b0381118282101761027457604052670de0b6b3a76400008152670de0b6b3a76400006020820152671bc16d674ec8000060408201526729a2241af62c00006060820152674563918244f400006080820152676f05b59d3b20000060a082015267b469471f8014000060c08201526801236efcbcbb34000060e08201526801d7d843dc3b4800006101008201526802fb474098f67c00006101208201526804d31f847531c400006101408201526807ce66c50e284000006101608201525f5b600c81106102565750506001600160a01b038116158015610245575b6102325760805260a052600a80546001600160a01b0319163317905560405161336c90816102b48239608051818181610cdb015281816117700152612974015260a05181612ce60152f35b634726455360e11b5f525f60045260245ffd5b506001600160a01b038216156101e7565b81516001600160481b0316600d8201556020909101906001016101cb565b634e487b7160e01b5f52604160045260245ffd5b631e4fbdf760e01b5f525f60045260245ffd5b5f80fd5b51906001600160a01b038216820361029b5756fe60806040526004361015610011575f80fd5b5f5f3560e01c80630300290214612d0a57806306433b1b14612c9c578063079d2d42146125c257806311f1fc99146124045780632e5aaf331461234e5780633103f5141461230457806352b7512c14611cb2578063584465f214611c2a578063594a6f2314611bef57806359f19c0914611bb45780635e5c06e214611a8257806361d1bc9414611a47578063682ca41514611a0c5780636bc8f9a1146119bb578063715018a6146119215780637c627b21146118865780637f51bb1f14611794578063826600ce146117265780638da5cb5b146116d65780638e5802131461160b57806394430fa5146115ba5780639bd829fd146114cd578063a037f639146111fd578063a09cfea814611101578063a134d63a14610f5f578063a19f3ea714610f24578063ab3403a6146109be578063ab611bd61461096c578063b9e205ae146108b3578063d013010114610861578063d20727d71461079d578063d775cb6114610761578063e6c336bd14610672578063f2fde38b14610584578063f3d91708146103975763f46a06b7146101a6575f80fd5b346103945760207ffffffffffffffffffffffffffffffffffffffffffffffffffffffffffffffffc360112610394576004356101e06131ee565b33825260016020526001604083200154156103685773ffffffffffffffffffffffffffffffffffffffff600b5416156103405733825260016020526002604083200161022d828254613195565b90553380835260016020908152604080852042600491820155600b5491517f23b872dd000000000000000000000000000000000000000000000000000000008152908101939093523060248401526044830184905282906064908290879073ffffffffffffffffffffffffffffffffffffffff165af1801561033557610308575b506040519081524260208201527fefe2a208a6284ada62baca5550002f0dca59dabd051684281a86d66260f95f1960403392a260017f9b779b17422d0df92223018b32b4d1fa46e071723d6817e2486d003becc55f005580f35b6103299060203d60201161032e575b6103218183612e61565b8101906130ba565b6102ae565b503d610317565b6040513d85823e3d90fd5b6004827fc52a9bd3000000000000000000000000000000000000000000000000000000008152fd5b6024827fbfc6c33700000000000000000000000000000000000000000000000000000000815233600452fd5b80fd5b50346103945760207ffffffffffffffffffffffffffffffffffffffffffffffffffffffffffffffffc3601126103945773ffffffffffffffffffffffffffffffffffffffff6103e4612e05565b168152600160205260408120604051906103fd82612e44565b8054825260018101546020830152600281015460408301908152600382015460608401526004820154608084015260058201549060a0840191825261044460068401613137565b60c085015273ffffffffffffffffffffffffffffffffffffffff60078401541660e085015273ffffffffffffffffffffffffffffffffffffffff6008840154166101008501526009830154610120850152600a830154610140850152601e600b84015480610160870152600c85015495866101808201526101e060ff600f600d890154986101a08501998a52600e8101546101c0860152015416151591015210159384610577575b5083610516575b5050602092508161050a575b506040519015158152f35b600c915051105f6104ff565b90919250519260648402938085046064149015171561054a57506105406020936096925190613045565b1015905f806104f3565b807f4e487b7100000000000000000000000000000000000000000000000000000000602492526011600452fd5b6103e8111593505f6104ec565b50346103945760207ffffffffffffffffffffffffffffffffffffffffffffffffffffffffffffffffc3601126103945773ffffffffffffffffffffffffffffffffffffffff6105d1612e05565b6105d96131a2565b1680156106465773ffffffffffffffffffffffffffffffffffffffff8254827fffffffffffffffffffffffff00000000000000000000000000000000000000008216178455167f8be0079c531659141344cd1fd0a4f28419497f9722a3daafe3b4186f6b6457e08380a380f35b6024827f1e4fbdf700000000000000000000000000000000000000000000000000000000815280600452fd5b50346103945760207ffffffffffffffffffffffffffffffffffffffffffffffffffffffffffffffffc3601126103945773ffffffffffffffffffffffffffffffffffffffff6106bf612e05565b6106c76131a2565b1680156107365773ffffffffffffffffffffffffffffffffffffffff600a54827fffffffffffffffffffffffff0000000000000000000000000000000000000000821617600a55167feaa115d617c1f519668f814e72f9bf6515b0b980de8958f676a9ae0d43da641d8380a380f35b7f8e4c8aa6000000000000000000000000000000000000000000000000000000008252600452602490fd5b503461039457807ffffffffffffffffffffffffffffffffffffffffffffffffffffffffffffffffc360112610394576020600554604051908152f35b50346103945760207ffffffffffffffffffffffffffffffffffffffffffffffffffffffffffffffffc3601126103945773ffffffffffffffffffffffffffffffffffffffff6107ea612e05565b6107f26131a2565b1680156107365773ffffffffffffffffffffffffffffffffffffffff600b54827fffffffffffffffffffffffff0000000000000000000000000000000000000000821617600b55167f75f4cc3f3f70100dc11e396f47f8af2dec5cf7ec94e06062222be779cf2f3dec8380a380f35b503461039457807ffffffffffffffffffffffffffffffffffffffffffffffffffffffffffffffffc36011261039457602073ffffffffffffffffffffffffffffffffffffffff60035416604051908152f35b50346103945760207ffffffffffffffffffffffffffffffffffffffffffffffffffffffffffffffffc3601126103945760043533825260016020526001604083200154156103685780156109415733825260016020528060096040842001556040519081527f0b4e9390054347e2a16d95fd8376311b0d2deedecba526e9742bcaa40b059f0b60203392a280f35b7f3728b83d000000000000000000000000000000000000000000000000000000008252600452602490fd5b503461039457807ffffffffffffffffffffffffffffffffffffffffffffffffffffffffffffffffc36011261039457602073ffffffffffffffffffffffffffffffffffffffff600b5416604051908152f35b5034610df85760807ffffffffffffffffffffffffffffffffffffffffffffffffffffffffffffffffc360112610df8576024359060043567ffffffffffffffff8311610df85736602384011215610df8578260040135610a1d8161301a565b93610a2b6040519586612e61565b8185526024602086019260051b82010190368211610df857602401915b818310610ef75750505060443573ffffffffffffffffffffffffffffffffffffffff8116809103610df8576064359073ffffffffffffffffffffffffffffffffffffffff8216809203610df857610a9d6131ee565b600554808410610ec85750335f526001602052600160405f200154610e9c578115610e7057905f9160065460405191610ad583612e44565b858352602083019342855260408401928684526060850192878452608086019288845260a0870192835260c087019b8c5260e087019182526101008701908152610120870191670de0b6b3a764000083526101408801938a85526101608901958b87526101808a01978c89526101a08b019960018b526101c08c019b428d526101e081019e8f52335f526001602052600160405f209e8f92518355519101555160028d01555160038c01555160048b01555160058a0155600689019c5180519067ffffffffffffffff8211610e4357680100000000000000008211610e43576020908f8054848255808510610e28575b5050019d5f5260205f209d5f905b828210610dfc57505050600f999a9b9c509073ffffffffffffffffffffffffffffffffffffffff809251168260078b0191167fffffffffffffffffffffffff0000000000000000000000000000000000000000825416179055511673ffffffffffffffffffffffffffffffffffffffff6008890191167fffffffffffffffffffffffff000000000000000000000000000000000000000082541617905551600987015551600a86015551600b85015551600c84015551600d83015551600e820155019051151560ff7fffffffffffffffffffffffffffffffffffffffffffffffffffffffffffffff00835416911617905573ffffffffffffffffffffffffffffffffffffffff7f000000000000000000000000000000000000000000000000000000000000000016803b15610df8575f809160a4604051809481937f1720af7000000000000000000000000000000000000000000000000000000000835233600484015287602484015260606044840152601760648401527f53757065725061796d6173746572206f70657261746f7200000000000000000060848401525af18015610ded57610dd8575b506040519081524260208201527f2d45a98f9905b134cf6865a4353130b6928e3bc644f9f98382d3a8c4dd3e727860403392a260017f9b779b17422d0df92223018b32b4d1fa46e071723d6817e2486d003becc55f005580f35b610de59192505f90612e61565b5f905f610d7e565b6040513d5f823e3d90fd5b5f80fd5b8f918181602073ffffffffffffffffffffffffffffffffffffffff600195511692019401550190610bd3565b610e3c915f5284845f209182019101613095565b8f5f610bc5565b7f4e487b71000000000000000000000000000000000000000000000000000000005f52604160045260245ffd5b507f8e4c8aa6000000000000000000000000000000000000000000000000000000005f5260045260245ffd5b7f45ed80e9000000000000000000000000000000000000000000000000000000005f523360045260245ffd5b837f45be0a26000000000000000000000000000000000000000000000000000000005f5260045260245260445ffd5b823573ffffffffffffffffffffffffffffffffffffffff81168103610df857815260209283019201610a48565b34610df8575f7ffffffffffffffffffffffffffffffffffffffffffffffffffffffffffffffffc360112610df8576020600c54604051908152f35b34610df85760207ffffffffffffffffffffffffffffffffffffffffffffffffffffffffffffffffc360112610df85773ffffffffffffffffffffffffffffffffffffffff610fab612e05565b165f52600260205260405f20805490610fc38261301a565b91610fd16040519384612e61565b8083526020830180925f5260205f205f915b8383106110a557848660405191829160208301906020845251809152604083019060408160051b85010192915f905b82821061102157505050500390f35b91936020817fffffffffffffffffffffffffffffffffffffffffffffffffffffffffffffffc060019496988394030185526110958851918251815283830151848201526040830151604082015260808061108a606086015160a0606086015260a0850190612ea2565b94015191019061300d565b9601920192018594939192611012565b600560206001926040516110b881612e28565b855481528486015483820152600286015460408201526110da60038701612f4f565b60608201526110f360ff60048801541660808301613089565b815201920192019190610fe3565b34610df85760207ffffffffffffffffffffffffffffffffffffffffffffffffffffffffffffffffc360112610df85760043561113b6131a2565b678ac7230489e80000811015806111e9575b1561118b5760407f2f52fee6f5310c81bd993cbc15a13c9ae6ff1aae82b0c83e3f471b052667e06a91600654908060065582519182526020820152a1005b60646040517f08c379a000000000000000000000000000000000000000000000000000000000815260206004820152601560248201527f496e76616c69642062616c616e63652072616e676500000000000000000000006044820152fd5b5069021e19e0c9bab240000081111561114d565b34610df85760207ffffffffffffffffffffffffffffffffffffffffffffffffffffffffffffffffc360112610df857611234612e05565b60405161124081612e44565b5f8152602081015f9052604081015f9052606081015f9052608081015f905260a081015f905260c081016060905260e081015f905261010081015f905261012081015f905261014081015f905261016081015f905261018081015f90526101a081015f90526101c081015f90526101e0015f905273ffffffffffffffffffffffffffffffffffffffff165f52600160205260405f20604051906112e282612e44565b80548252600181015491602081019283528080600284015493604082019485526003810154606083019081526004820154966080840197885260058301549760a085019889526006840161133590613137565b9860c08601998a52600785015473ffffffffffffffffffffffffffffffffffffffff1660e08701908152600886015473ffffffffffffffffffffffffffffffffffffffff169a61010088019b8c526009870154926101208901938452600a880154946101408a01958652600b890154966101608b01978852600c8a0154986101808c01998a52600d8b01549a6101a08d019b8c52600e8101549c6101c0019c8d52600f015460ff169c6101e0019c15158d526040519e8f926020845261022084019f5160208501525160408401525160608301525190608001525160a08d01525160c08c0152519860e08b01610200905289518091526102408b0199602001905f5b8181106114a157505050899a73ffffffffffffffffffffffffffffffffffffffff809251166101008c015251166101208a0152516101408901525161016088015251610180870152516101a0860152516101c0850152516101e08401525115156102008301520390f35b825173ffffffffffffffffffffffffffffffffffffffff168c5260209b8c019b90920191600101611437565b34610df85760207ffffffffffffffffffffffffffffffffffffffffffffffffffffffffffffffffc360112610df85773ffffffffffffffffffffffffffffffffffffffff611519612e05565b6115216131a2565b16801561158f5773ffffffffffffffffffffffffffffffffffffffff600354827fffffffffffffffffffffffff0000000000000000000000000000000000000000821617600355167f2878db625326aa91e211d81222b77a612b4ff7a2265feec65f3c643a9f184bab5f80a3005b7f8e4c8aa6000000000000000000000000000000000000000000000000000000005f5260045260245ffd5b34610df8575f7ffffffffffffffffffffffffffffffffffffffffffffffffffffffffffffffffc360112610df857602073ffffffffffffffffffffffffffffffffffffffff60045416604051908152f35b34610df85760407ffffffffffffffffffffffffffffffffffffffffffffffffffffffffffffffffc360112610df857611642612e05565b73ffffffffffffffffffffffffffffffffffffffff60243591165f52600260205260405f20908154811015610df85761167a91612ee5565b5080546001820154916116d26116c760028301549260ff600461169f60038401612f4f565b920154169360405196879687526020870152604086015260a0606086015260a0850190612ea2565b91608084019061300d565b0390f35b34610df8575f7ffffffffffffffffffffffffffffffffffffffffffffffffffffffffffffffffc360112610df857602073ffffffffffffffffffffffffffffffffffffffff5f5416604051908152f35b34610df8575f7ffffffffffffffffffffffffffffffffffffffffffffffffffffffffffffffffc360112610df857602060405173ffffffffffffffffffffffffffffffffffffffff7f0000000000000000000000000000000000000000000000000000000000000000168152f35b34610df85760207ffffffffffffffffffffffffffffffffffffffffffffffffffffffffffffffffc360112610df8576117cb612e05565b335f526001602052600160405f2001541561185a5773ffffffffffffffffffffffffffffffffffffffff16801561158f57335f526001602052600860405f2001817fffffffffffffffffffffffff0000000000000000000000000000000000000000825416179055337f4ab5be82436d353e61ca18726e984e561f5c1cc7c6d38b29d2553c790434705a5f80a3005b7fbfc6c337000000000000000000000000000000000000000000000000000000005f523360045260245ffd5b34610df85760807ffffffffffffffffffffffffffffffffffffffffffffffffffffffffffffffffc360112610df85760036004351015610df85760243567ffffffffffffffff8111610df85736602382011215610df857806004013567ffffffffffffffff8111610df85736910160240111610df85761191f73ffffffffffffffffffffffffffffffffffffffff6004541633146130d2565b005b34610df8575f7ffffffffffffffffffffffffffffffffffffffffffffffffffffffffffffffffc360112610df8576119576131a2565b5f73ffffffffffffffffffffffffffffffffffffffff81547fffffffffffffffffffffffff000000000000000000000000000000000000000081168355167f8be0079c531659141344cd1fd0a4f28419497f9722a3daafe3b4186f6b6457e08280a3005b34610df8575f7ffffffffffffffffffffffffffffffffffffffffffffffffffffffffffffffffc360112610df857602073ffffffffffffffffffffffffffffffffffffffff600a5416604051908152f35b34610df8575f7ffffffffffffffffffffffffffffffffffffffffffffffffffffffffffffffffc360112610df8576020600854604051908152f35b34610df8575f7ffffffffffffffffffffffffffffffffffffffffffffffffffffffffffffffffc360112610df8576020600954604051908152f35b34610df85760207ffffffffffffffffffffffffffffffffffffffffffffffffffffffffffffffffc360112610df857611ab9612e05565b73ffffffffffffffffffffffffffffffffffffffff165f52600160205260405f2080546001820154916002810154600382015460048301546005840154600785015473ffffffffffffffffffffffffffffffffffffffff16600886015473ffffffffffffffffffffffffffffffffffffffff16600987015491600a88015493600b89015495600c8a015497600d8b015499600e8c01549b600f015460ff169c6040519e8f91825260208201526040015260608d015260808c015260a08b015260c08a015260e08901526101008801526101208701526101408601526101608501526101808401526101a083015215156101c08201526101e090f35b34610df8575f7ffffffffffffffffffffffffffffffffffffffffffffffffffffffffffffffffc360112610df8576020600654604051908152f35b34610df8575f7ffffffffffffffffffffffffffffffffffffffffffffffffffffffffffffffffc360112610df8576020600754604051908152f35b34610df85760207ffffffffffffffffffffffffffffffffffffffffffffffffffffffffffffffffc360112610df85773ffffffffffffffffffffffffffffffffffffffff611c76612e05565b611c7e6131a2565b16801561158f577fffffffffffffffffffffffff000000000000000000000000000000000000000060045416176004555f80f35b34610df85760607ffffffffffffffffffffffffffffffffffffffffffffffffffffffffffffffffc360112610df85760043567ffffffffffffffff8111610df8578036036101207ffffffffffffffffffffffffffffffffffffffffffffffffffffffffffffffffc820112610df857611d4473ffffffffffffffffffffffffffffffffffffffff6004541633146130d2565b7fffffffffffffffffffffffffffffffffffffffffffffffffffffffffffffffdd60e48301359101811215610df8578101600481013567ffffffffffffffff8111610df8578036036024830113610df857604881106122a657604811610df8576058013560601c906004013573ffffffffffffffffffffffffffffffffffffffff811690818103610df857825f52600160205260ff600f60405f2001541661227a57825f526001602052611e06611e00600660405f2001613137565b82613265565b1561224e57670de0b6b3a7640000611e22600854604435613032565b046009546127100190816127101161212a5761271091611e4191613032565b04670de0b6b3a7640000810290808204670de0b6b3a7640000149015171561212a57600754611e6f91613045565b835f52600160205280600260405f2001541061220f57835f526001602052600960405f2001548015612200575b611eaf670de0b6b3a76400009183613032565b0491845f52600160205273ffffffffffffffffffffffffffffffffffffffff600760405f2001541690855f52600160205273ffffffffffffffffffffffffffffffffffffffff600860405f2001541690821580156121f8575b6121d0576040517f23b872dd00000000000000000000000000000000000000000000000000000000815273ffffffffffffffffffffffffffffffffffffffff9182166004820152911660248201526044810184905290602090829060649082905f905af18015610ded576121b3575b50835f526001602052600260405f2001611f9282825461307c565b9055611fa081600c54613195565b600c55835f526001602052600360405f2001611fbd828254613195565b9055835f526001602052600c60405f20018054916001830180931161212a5785937f630b58b43ea2264e21818b6acb343b04b8bda64436cbb053be8550c0a31204c893606093556040519182526020820152426040820152a3805f52600160205260405f20600e81016201518061203582544261307c565b0480612198575b5050601e600b820154101580612188575b80612157575b61208a575b612080604051612069602082612e61565b5f8152604051918291604083526040830190612ea2565b5f60208301520390f35b600d8101908154600c8110806120a3575b505050612058565b600182019384831161212a57849055156120fd577f5b88a2e3fc1a53234357ab78c104df11c33ccfa79886793654565ad70b8afb6e92604092600a92600d0154928391015582519182526020820152a2808080808061209b565b7f4e487b71000000000000000000000000000000000000000000000000000000005f52603260045260245ffd5b7f4e487b71000000000000000000000000000000000000000000000000000000005f52601160045260245ffd5b50600281015460648102908082046064149015171561212a57612181609691600584015490613045565b1015612053565b506103e8600c820154101561204d565b6121a7600b8401918254613195565b9055429055828061203c565b6121cb9060203d60201161032e576103218183612e61565b611f77565b7fc52a9bd3000000000000000000000000000000000000000000000000000000005f5260045ffd5b508115611f08565b50670de0b6b3a7640000611e9c565b835f526001602052600260405f200154907f6c54698f000000000000000000000000000000000000000000000000000000005f5260045260245260445ffd5b507f8eff01bd000000000000000000000000000000000000000000000000000000005f5260045260245ffd5b827f87356059000000000000000000000000000000000000000000000000000000005f5260045260245ffd5b60646040517f08c379a000000000000000000000000000000000000000000000000000000000815260206004820152601860248201527f496e76616c6964207061796d6173746572416e644461746100000000000000006044820152fd5b34610df85760207ffffffffffffffffffffffffffffffffffffffffffffffffffffffffffffffffc360112610df857600435600c811015610df857602090600d0154604051908152f35b34610df85760207ffffffffffffffffffffffffffffffffffffffffffffffffffffffffffffffffc360112610df85773ffffffffffffffffffffffffffffffffffffffff61239a612e05565b6123a26131a2565b16805f526001602052600f60405f20017fffffffffffffffffffffffffffffffffffffffffffffffffffffffffffffff0081541690557f49f03f628d42b9a85b80f1961221d0b48cb3b89fa100c73f982e763d80b87e826020604051428152a2005b34610df85760207ffffffffffffffffffffffffffffffffffffffffffffffffffffffffffffffffc360112610df85760043561243e6131ee565b73ffffffffffffffffffffffffffffffffffffffff600a54169081330361259657600c54918282116125675760205f91612478848661307c565b600c55604473ffffffffffffffffffffffffffffffffffffffff600b54169160405194859384927fa9059cbb00000000000000000000000000000000000000000000000000000000845260048401528760248401525af18015610ded5761254a575b507f241d26202ece0e96f169c3ab6b0d540776434219c78f5727afa20c32cf367a29604073ffffffffffffffffffffffffffffffffffffffff600a5416928151908152426020820152a260017f9b779b17422d0df92223018b32b4d1fa46e071723d6817e2486d003becc55f0055005b6125629060203d60201161032e576103218183612e61565b6124da565b507f6c54698f000000000000000000000000000000000000000000000000000000005f5260045260245260445ffd5b7fd86ad9cf000000000000000000000000000000000000000000000000000000005f523360045260245ffd5b34610df85760607ffffffffffffffffffffffffffffffffffffffffffffffffffffffffffffffffc360112610df8576125f9612e05565b602435906003821015610df85760443567ffffffffffffffff8111610df85736602382011215610df85780600401359067ffffffffffffffff8211610e43576040519161266e601f82017fffffffffffffffffffffffffffffffffffffffffffffffffffffffffffffffe01660200184612e61565b8083523660248284010111610df8575f9281602460209401848301370101526126956131ee565b73ffffffffffffffffffffffffffffffffffffffff600354163303612596575f918291908281612bf25750600a915b73ffffffffffffffffffffffffffffffffffffffff8415159182612bd2575b1694855f52600160205283600a60405f200154115f14612bbc57855f526001602052600a60405f200161271785825461307c565b90555b612a115760028214612b54575b845f52600260205260405f2060405161273f81612e28565b42815260208101868152604082019586526040958651916127608884612e61565b601d83527f61504e54732062616c616e63652062656c6f77207468726573686f6c6400000060208401526060840192835260808401946127a08887613089565b805468010000000000000000811015610e43576127c291600182018155612ee5565b949094612b2857518455516001840155516002830155518051600383019167ffffffffffffffff8211610e43576127f98354612efe565b601f8111612aed575b50602090601f8311600114612a49576004949392915f9183612a3e575b50507fffffffffffffffffffffffffffffffffffffffffffffffffffffffffffffffff8260011b9260031b1c19161790555b0190516003811015612a115760ff7fffffffffffffffffffffffffffffffffffffffffffffffffffffffffffffff0083541691161790556128f1575b91816128c57fe216348b2cefd620d4e4c927d86a94acddbab961dc77be94287573e6914632ac9460609451938452602084019061300d565b4290820152a260017f9b779b17422d0df92223018b32b4d1fa46e071723d6817e2486d003becc55f0055005b81517f678b3ee200000000000000000000000000000000000000000000000000000000815284600482015283602482015260606044820152601160648201527f4c6f772061504e54732062616c616e6365000000000000000000000000000000608482015260208160a4815f73ffffffffffffffffffffffffffffffffffffffff7f0000000000000000000000000000000000000000000000000000000000000000165af18015612a07577fe216348b2cefd620d4e4c927d86a94acddbab961dc77be94287573e6914632ac9492606094926128c5926129d8575b5092945050915061288d565b6129f99060203d602011612a00575b6129f18183612e61565b8101906130ab565b50876129cc565b503d6129e7565b83513d5f823e3d90fd5b7f4e487b71000000000000000000000000000000000000000000000000000000005f52602160045260245ffd5b015190508b8061281f565b907fffffffffffffffffffffffffffffffffffffffffffffffffffffffffffffffe0831691845f52815f20925f5b818110612ad5575091600193918560049897969410612a9e575b505050811b019055612851565b01517fffffffffffffffffffffffffffffffffffffffffffffffffffffffffffffffff60f88460031b161c191690558b8080612a91565b92936020600181928786015181550195019301612a77565b612b1890845f5260205f20601f850160051c81019160208610612b1e575b601f0160051c0190613095565b8a612802565b9091508190612b0b565b7f4e487b71000000000000000000000000000000000000000000000000000000005f525f60045260245ffd5b845f526001602052600f60405f200160017fffffffffffffffffffffffffffffffffffffffffffffffffffffffffffffff00825416179055847f2413c4e0ff35d3e774e7eccc74d646c4ae1c614a5641167485f6c458e3801a446020604051428152a2612727565b855f5260016020525f600a60408220015561271a565b8181165f52600160205260405f20612beb87825461307c565b90556126e3565b9350915f93600184145f14612c4657505073ffffffffffffffffffffffffffffffffffffffff81165f52600160205260405f205460058102908082046005149015171561212a5760649004916014916126c4565b919350915f93600282036126c45773ffffffffffffffffffffffffffffffffffffffff919350809250165f52600160205260405f2054600a810290808204600a149015171561212a5760649004916032916126c4565b34610df8575f7ffffffffffffffffffffffffffffffffffffffffffffffffffffffffffffffffc360112610df857602060405173ffffffffffffffffffffffffffffffffffffffff7f0000000000000000000000000000000000000000000000000000000000000000168152f35b34610df85760207ffffffffffffffffffffffffffffffffffffffffffffffffffffffffffffffffc360112610df857600435612d446131a2565b678ac7230489e8000081101580612df2575b15612d945760407ff6eefd49a83d72df0cc9ddb5557cfa6a047393b8d4a85163a8cefe7aa490a30f91600554908060055582519182526020820152a1005b60646040517f08c379a000000000000000000000000000000000000000000000000000000000815260206004820152601360248201527f496e76616c6964207374616b652072616e6765000000000000000000000000006044820152fd5b50683635c9adc5dea00000811115612d56565b6004359073ffffffffffffffffffffffffffffffffffffffff82168203610df857565b60a0810190811067ffffffffffffffff821117610e4357604052565b610200810190811067ffffffffffffffff821117610e4357604052565b90601f7fffffffffffffffffffffffffffffffffffffffffffffffffffffffffffffffe0910116810190811067ffffffffffffffff821117610e4357604052565b907fffffffffffffffffffffffffffffffffffffffffffffffffffffffffffffffe0601f602080948051918291828752018686015e5f8582860101520116010190565b80548210156120fd575f52600560205f20910201905f90565b90600182811c92168015612f45575b6020831014612f1857565b7f4e487b71000000000000000000000000000000000000000000000000000000005f52602260045260245ffd5b91607f1691612f0d565b9060405191825f825492612f6284612efe565b8084529360018116908115612fcd5750600114612f89575b50612f8792500383612e61565b565b90505f9291925260205f20905f915b818310612fb1575050906020612f87928201015f612f7a565b6020919350806001915483858901015201910190918492612f98565b60209350612f879592507fffffffffffffffffffffffffffffffffffffffffffffffffffffffffffffff0091501682840152151560051b8201015f612f7a565b906003821015612a115752565b67ffffffffffffffff8111610e435760051b60200190565b8181029291811591840414171561212a57565b811561304f570490565b7f4e487b71000000000000000000000000000000000000000000000000000000005f52601260045260245ffd5b9190820391821161212a57565b6003821015612a115752565b8181106130a0575050565b5f8155600101613095565b90816020910312610df8575190565b90816020910312610df857518015158103610df85790565b156130d957565b60646040517f08c379a000000000000000000000000000000000000000000000000000000000815260206004820152600f60248201527f4f6e6c7920456e747279506f696e7400000000000000000000000000000000006044820152fd5b90604051918281549182825260208201905f5260205f20925f5b818110613166575050612f8792500383612e61565b845473ffffffffffffffffffffffffffffffffffffffff16835260019485019487945060209093019201613151565b9190820180921161212a57565b73ffffffffffffffffffffffffffffffffffffffff5f541633036131c257565b7f118cdaa7000000000000000000000000000000000000000000000000000000005f523360045260245ffd5b60027f9b779b17422d0df92223018b32b4d1fa46e071723d6817e2486d003becc55f00541461323d5760027f9b779b17422d0df92223018b32b4d1fa46e071723d6817e2486d003becc55f0055565b7f3ee5aeb5000000000000000000000000000000000000000000000000000000005f5260045ffd5b5f5b825181101561332f576024602073ffffffffffffffffffffffffffffffffffffffff818460051b8701015116604051928380927f70a0823100000000000000000000000000000000000000000000000000000000825273ffffffffffffffffffffffffffffffffffffffff881660048301525afa908115610ded575f916132fe575b506132f657600101613267565b505050600190565b90506020813d8211613327575b8161331860209383612e61565b81010312610df857515f6132e9565b3d915061330b565b5050505f9056fea2646970667358221220ad255e52b087ba668643885b9d67d7062fbbb6bb3c5f1a1d52a5c6132366dfc464736f6c634300081c0033","linkReferences":{}},"methodIdentifiers":{"DVT_AGGREGATOR()":"d0130101","ENTRY_POINT()":"94430fa5","GTOKEN_STAKING()":"826600ce","REGISTRY()":"06433b1b","REPUTATION_LEVELS(uint256)":"3103f514","aPNTsPriceUSD()":"594a6f23","aPNTsToken()":"ab611bd6","accounts(address)":"5e5c06e2","depositAPNTs(uint256)":"f46a06b7","executeSlashWithBLS(address,uint8,bytes)":"079d2d42","gasToUSDRate()":"682ca415","getOperatorAccount(address)":"a037f639","getSlashHistory(address)":"a134d63a","isEligibleForUpgrade(address)":"f3d91708","minAPNTsBalance()":"59f19c09","minOperatorStake()":"d775cb61","owner()":"8da5cb5b","postOp(uint8,bytes,uint256,uint256)":"7c627b21","registerOperator(uint256,address[],address,address)":"ab3403a6","renounceOwnership()":"715018a6","serviceFeeRate()":"61d1bc94","setAPNTsToken(address)":"d20727d7","setDVTAggregator(address)":"9bd829fd","setEntryPoint(address)":"584465f2","setMinAPNTsBalance(uint256)":"a09cfea8","setMinOperatorStake(uint256)":"03002902","setSuperPaymasterTreasury(address)":"e6c336bd","slashHistory(address,uint256)":"8e580213","superPaymasterTreasury()":"6bc8f9a1","transferOwnership(address)":"f2fde38b","treasuryAPNTsBalance()":"a19f3ea7","unpauseOperator(address)":"2e5aaf33","updateExchangeRate(uint256)":"b9e205ae","updateTreasury(address)":"7f51bb1f","validatePaymasterUserOp((address,uint256,bytes,bytes,bytes32,uint256,bytes32,bytes,bytes),bytes32,uint256)":"52b7512c","withdrawTreasury(uint256)":"11f1fc99"},"id":216}